{
	"src/lib/TickBitmap.sol": {
		"TickBitmap": {
			"abi": [
				{
					"inputs": [
						{
							"internalType": "int24",
							"name": "tick",
							"type": "int24"
						}
					],
					"name": "position",
					"outputs": [
						{
							"internalType": "int16",
							"name": "wordPos",
							"type": "int16"
						},
						{
							"internalType": "uint8",
							"name": "bitPos",
							"type": "uint8"
						}
					],
					"stateMutability": "pure",
					"type": "function"
				}
			],
			"devdoc": {
				"details": "The mapping uses int16 for keys since ticks are represented as int24 and there are 256 (2^8) values per word.",
				"kind": "dev",
				"methods": {
					"flipTick(mapping(int16 => uint256) storage,int24,int24)": {
						"params": {
							"self": "The mapping in which to flip the tick",
							"tick": "The tick to flip",
							"tickSpacing": "The spacing between usable ticks"
						}
					},
					"nextInitializedTickWithinOneWord(mapping(int16 => uint256) storage,int24,int24,bool)": {
						"params": {
							"lte": "Whether to search for the next initialized tick to the left (less than or equal to the starting tick)",
							"self": "The mapping in which to compute the next initialized tick",
							"tick": "The starting tick",
							"tickSpacing": "The spacing between usable ticks"
						},
						"returns": {
							"initialized": "Whether the next tick is initialized, as the function only searches within up to 256 ticks",
							"next": "The next initialized or uninitialized tick up to 256 ticks away from the current tick"
						}
					},
					"position(int24)": {
						"params": {
							"tick": "The tick for which to compute the position"
						},
						"returns": {
							"bitPos": "The bit position in the word where the flag is stored",
							"wordPos": "The key in the mapping containing the word in which the bit is stored"
						}
					}
				},
				"title": "Packed tick initialized state library",
				"version": 1
			},
			"evm": {
				"assembly": "    /* \"src/lib/TickBitmap.sol\":339:4227  library TickBitmap {... */\n  dataSize(sub_0)\n  dataOffset(sub_0)\n  0x0b\n  dup3\n  dup3\n  dup3\n  codecopy\n  dup1\n  mload\n  0x00\n  byte\n  0x73\n  eq\n  tag_1\n  jumpi\n  mstore(0x00, shl(0xe0, 0x4e487b71))\n  mstore(0x04, 0x00)\n  revert(0x00, 0x24)\ntag_1:\n  mstore(0x00, address)\n  0x73\n  dup2\n  mstore8\n  dup3\n  dup2\n  return\nstop\n\nsub_0: assembly {\n        /* \"src/lib/TickBitmap.sol\":339:4227  library TickBitmap {... */\n      eq(address, deployTimeAddress())\n      mstore(0x40, 0x80)\n      jumpi(tag_1, lt(calldatasize, 0x04))\n      shr(0xe0, calldataload(0x00))\n      dup1\n      0x120b7ff9\n      eq\n      tag_2\n      jumpi\n      dup1\n      0x3e7b7779\n      eq\n      tag_3\n      jumpi\n      dup1\n      0x9c4bba91\n      eq\n      tag_4\n      jumpi\n    tag_1:\n      0x00\n      dup1\n      revert\n        /* \"src/lib/TickBitmap.sol\":2234:4224  function nextInitializedTickWithinOneWord(... */\n    tag_2:\n      tag_5\n      tag_6\n      calldatasize\n      0x04\n      tag_7\n      jump\t// in\n    tag_6:\n      tag_8\n      jump\t// in\n    tag_5:\n      0x40\n      dup1\n      mload\n        /* \"#utility.yul\":944:945   */\n      0x02\n        /* \"#utility.yul\":933:954   */\n      swap4\n      swap1\n      swap4\n      signextend\n        /* \"#utility.yul\":915:955   */\n      dup4\n      mstore\n        /* \"#utility.yul\":998:1012   */\n      swap1\n      iszero\n        /* \"#utility.yul\":991:1013   */\n      iszero\n        /* \"#utility.yul\":986:988   */\n      0x20\n        /* \"#utility.yul\":971:989   */\n      dup4\n      add\n        /* \"#utility.yul\":964:1014   */\n      mstore\n        /* \"#utility.yul\":888:906   */\n      add\n        /* \"src/lib/TickBitmap.sol\":2234:4224  function nextInitializedTickWithinOneWord(... */\n    tag_9:\n      mload(0x40)\n      dup1\n      swap2\n      sub\n      swap1\n      return\n        /* \"src/lib/TickBitmap.sol\":699:869  function position(int24 tick) public pure returns (int16 wordPos, uint8 bitPos) {... */\n    tag_3:\n      tag_11\n      tag_12\n      calldatasize\n      0x04\n      tag_13\n      jump\t// in\n    tag_12:\n      tag_14\n      jump\t// in\n    tag_11:\n      0x40\n      dup1\n      mload\n        /* \"#utility.yul\":1415:1416   */\n      0x01\n        /* \"#utility.yul\":1404:1425   */\n      swap4\n      swap1\n      swap4\n      signextend\n        /* \"#utility.yul\":1386:1426   */\n      dup4\n      mstore\n        /* \"#utility.yul\":1474:1478   */\n      0xff\n        /* \"#utility.yul\":1462:1479   */\n      swap1\n      swap2\n      and\n        /* \"#utility.yul\":1457:1459   */\n      0x20\n        /* \"#utility.yul\":1442:1460   */\n      dup4\n      add\n        /* \"#utility.yul\":1435:1480   */\n      mstore\n        /* \"#utility.yul\":1359:1377   */\n      add\n        /* \"src/lib/TickBitmap.sol\":699:869  function position(int24 tick) public pure returns (int16 wordPos, uint8 bitPos) {... */\n      tag_9\n        /* \"#utility.yul\":1212:1486   */\n      jump\n        /* \"src/lib/TickBitmap.sol\":1131:1486  function flipTick(... */\n    tag_4:\n      dup2\n      dup1\n      iszero\n      tag_17\n      jumpi\n      0x00\n      dup1\n      revert\n    tag_17:\n      pop\n      tag_18\n      tag_19\n      calldatasize\n      0x04\n      tag_20\n      jump\t// in\n    tag_19:\n      tag_21\n      jump\t// in\n    tag_18:\n      stop\n        /* \"src/lib/TickBitmap.sol\":2234:4224  function nextInitializedTickWithinOneWord(... */\n    tag_8:\n        /* \"src/lib/TickBitmap.sol\":2421:2431  int24 next */\n      0x00\n      dup1\n      dup1\n        /* \"src/lib/TickBitmap.sol\":2481:2499  tick / tickSpacing */\n      tag_23\n        /* \"src/lib/TickBitmap.sol\":2488:2499  tickSpacing */\n      dup6\n        /* \"src/lib/TickBitmap.sol\":2481:2485  tick */\n      dup8\n        /* \"src/lib/TickBitmap.sol\":2481:2499  tick / tickSpacing */\n      tag_24\n      jump\t// in\n    tag_23:\n        /* \"src/lib/TickBitmap.sol\":2462:2499  int24 compressed = tick / tickSpacing */\n      swap1\n      pop\n        /* \"src/lib/TickBitmap.sol\":2521:2522  0 */\n      0x00\n        /* \"src/lib/TickBitmap.sol\":2514:2518  tick */\n      dup7\n        /* \"src/lib/TickBitmap.sol\":2514:2522  tick < 0 */\n      0x02\n      signextend\n      slt\n        /* \"src/lib/TickBitmap.sol\":2514:2549  tick < 0 && tick % tickSpacing != 0 */\n      dup1\n      iszero\n      tag_25\n      jumpi\n      pop\n        /* \"src/lib/TickBitmap.sol\":2526:2544  tick % tickSpacing */\n      tag_26\n        /* \"src/lib/TickBitmap.sol\":2533:2544  tickSpacing */\n      dup6\n        /* \"src/lib/TickBitmap.sol\":2526:2530  tick */\n      dup8\n        /* \"src/lib/TickBitmap.sol\":2526:2544  tick % tickSpacing */\n      tag_27\n      jump\t// in\n    tag_26:\n        /* \"src/lib/TickBitmap.sol\":2526:2549  tick % tickSpacing != 0 */\n      0x02\n      signextend\n      iszero\n      iszero\n        /* \"src/lib/TickBitmap.sol\":2514:2549  tick < 0 && tick % tickSpacing != 0 */\n    tag_25:\n        /* \"src/lib/TickBitmap.sol\":2510:2563  if (tick < 0 && tick % tickSpacing != 0) compressed-- */\n      iszero\n      tag_28\n      jumpi\n        /* \"src/lib/TickBitmap.sol\":2551:2563  compressed-- */\n      dup1\n      tag_29\n      dup2\n      tag_30\n      jump\t// in\n    tag_29:\n      swap2\n      pop\n      pop\n        /* \"src/lib/TickBitmap.sol\":2510:2563  if (tick < 0 && tick % tickSpacing != 0) compressed-- */\n    tag_28:\n        /* \"src/lib/TickBitmap.sol\":2615:2618  lte */\n      dup4\n        /* \"src/lib/TickBitmap.sol\":2611:4217  if (lte) {... */\n      iszero\n      tag_31\n      jumpi\n        /* \"src/lib/TickBitmap.sol\":2636:2649  int16 wordPos */\n      0x00\n        /* \"src/lib/TickBitmap.sol\":2651:2663  uint8 bitPos */\n      dup1\n        /* \"src/lib/TickBitmap.sol\":2667:2687  position(compressed) */\n      tag_32\n        /* \"src/lib/TickBitmap.sol\":2676:2686  compressed */\n      dup4\n        /* \"src/lib/TickBitmap.sol\":2667:2675  position */\n      tag_14\n        /* \"src/lib/TickBitmap.sol\":2667:2687  position(compressed) */\n      jump\t// in\n    tag_32:\n        /* \"src/lib/TickBitmap.sol\":2635:2687  (int16 wordPos, uint8 bitPos) = position(compressed) */\n      swap1\n      swap3\n      pop\n      swap1\n      pop\n        /* \"src/lib/TickBitmap.sol\":2770:2782  uint256 mask */\n      0x00\n        /* \"src/lib/TickBitmap.sol\":2806:2807  1 */\n      0x01\n        /* \"src/lib/TickBitmap.sol\":2806:2817  1 << bitPos */\n      0xff\n      dup4\n      and\n      dup2\n      swap1\n      shl\n      swap1\n        /* \"src/lib/TickBitmap.sol\":2785:2802  (1 << bitPos) - 1 */\n      tag_33\n      swap1\n        /* \"src/lib/TickBitmap.sol\":2806:2817  1 << bitPos */\n      dup3\n        /* \"src/lib/TickBitmap.sol\":2785:2802  (1 << bitPos) - 1 */\n      tag_34\n      jump\t// in\n    tag_33:\n        /* \"src/lib/TickBitmap.sol\":2785:2818  (1 << bitPos) - 1 + (1 << bitPos) */\n      tag_35\n      swap2\n      swap1\n      tag_36\n      jump\t// in\n    tag_35:\n        /* \"src/lib/TickBitmap.sol\":2850:2863  self[wordPos] */\n      0x01\n      dup5\n      swap1\n      signextend\n        /* \"src/lib/TickBitmap.sol\":2833:2847  uint256 masked */\n      0x00\n        /* \"src/lib/TickBitmap.sol\":2850:2863  self[wordPos] */\n      swap1\n      dup2\n      mstore\n      0x20\n      dup13\n      swap1\n      mstore\n      0x40\n      swap1\n      keccak256\n      sload\n        /* \"src/lib/TickBitmap.sol\":2850:2870  self[wordPos] & mask */\n      dup2\n      and\n        /* \"src/lib/TickBitmap.sol\":3020:3031  masked != 0 */\n      dup1\n      iszero\n      iszero\n      swap7\n      pop\n        /* \"src/lib/TickBitmap.sol\":2770:2818  uint256 mask = (1 << bitPos) - 1 + (1 << bitPos) */\n      swap1\n      swap2\n      pop\n        /* \"src/lib/TickBitmap.sol\":3020:3031  masked != 0 */\n      dup6\n        /* \"src/lib/TickBitmap.sol\":3164:3352  initialized... */\n      tag_37\n      jumpi\n        /* \"src/lib/TickBitmap.sol\":3341:3352  tickSpacing */\n      dup9\n        /* \"src/lib/TickBitmap.sol\":3303:3337  compressed - int24(uint24(bitPos)) */\n      tag_38\n        /* \"src/lib/TickBitmap.sol\":3322:3336  uint24(bitPos) */\n      0xff\n      dup6\n      and\n        /* \"src/lib/TickBitmap.sol\":3303:3313  compressed */\n      dup8\n        /* \"src/lib/TickBitmap.sol\":3303:3337  compressed - int24(uint24(bitPos)) */\n      tag_39\n      jump\t// in\n    tag_38:\n        /* \"src/lib/TickBitmap.sol\":3302:3352  (compressed - int24(uint24(bitPos))) * tickSpacing */\n      tag_40\n      swap2\n      swap1\n      tag_41\n      jump\t// in\n    tag_40:\n        /* \"src/lib/TickBitmap.sol\":3164:3352  initialized... */\n      jump(tag_48)\n    tag_37:\n        /* \"src/lib/TickBitmap.sol\":3271:3282  tickSpacing */\n      dup9\n        /* \"src/lib/TickBitmap.sol\":3231:3265  BitMath.mostSignificantBit(masked) */\n      tag_43\n        /* \"src/lib/TickBitmap.sol\":3258:3264  masked */\n      dup3\n        /* \"src/lib/TickBitmap.sol\":3231:3257  BitMath.mostSignificantBit */\n      tag_44\n        /* \"src/lib/TickBitmap.sol\":3231:3265  BitMath.mostSignificantBit(masked) */\n      jump\t// in\n    tag_43:\n        /* \"src/lib/TickBitmap.sol\":3222:3265  bitPos - BitMath.mostSignificantBit(masked) */\n      tag_45\n      swap1\n        /* \"src/lib/TickBitmap.sol\":3222:3228  bitPos */\n      dup6\n        /* \"src/lib/TickBitmap.sol\":3222:3265  bitPos - BitMath.mostSignificantBit(masked) */\n      tag_46\n      jump\t// in\n    tag_45:\n        /* \"src/lib/TickBitmap.sol\":3196:3267  compressed - int24(uint24(bitPos - BitMath.mostSignificantBit(masked))) */\n      tag_47\n      swap1\n        /* \"src/lib/TickBitmap.sol\":3215:3266  uint24(bitPos - BitMath.mostSignificantBit(masked)) */\n      0xff\n      and\n        /* \"src/lib/TickBitmap.sol\":3196:3206  compressed */\n      dup8\n        /* \"src/lib/TickBitmap.sol\":3196:3267  compressed - int24(uint24(bitPos - BitMath.mostSignificantBit(masked))) */\n      tag_39\n      jump\t// in\n    tag_47:\n        /* \"src/lib/TickBitmap.sol\":3195:3282  (compressed - int24(uint24(bitPos - BitMath.mostSignificantBit(masked)))) * tickSpacing */\n      tag_48\n      swap2\n      swap1\n      tag_41\n      jump\t// in\n    tag_48:\n        /* \"src/lib/TickBitmap.sol\":3157:3352  next = initialized... */\n      swap7\n      pop\n        /* \"src/lib/TickBitmap.sol\":2620:3364  {... */\n      pop\n      pop\n      pop\n      pop\n        /* \"src/lib/TickBitmap.sol\":2611:4217  if (lte) {... */\n      jump(tag_49)\n    tag_31:\n        /* \"src/lib/TickBitmap.sol\":3484:3497  int16 wordPos */\n      0x00\n      dup1\n        /* \"src/lib/TickBitmap.sol\":3515:3539  position(compressed + 1) */\n      tag_50\n        /* \"src/lib/TickBitmap.sol\":3524:3538  compressed + 1 */\n      tag_12\n        /* \"src/lib/TickBitmap.sol\":3524:3534  compressed */\n      dup5\n        /* \"src/lib/TickBitmap.sol\":3537:3538  1 */\n      0x01\n        /* \"src/lib/TickBitmap.sol\":3524:3538  compressed + 1 */\n      tag_52\n      jump\t// in\n        /* \"src/lib/TickBitmap.sol\":3515:3539  position(compressed + 1) */\n    tag_50:\n        /* \"src/lib/TickBitmap.sol\":3483:3539  (int16 wordPos, uint8 bitPos) = position(compressed + 1) */\n      swap1\n      swap3\n      pop\n      swap1\n      pop\n        /* \"src/lib/TickBitmap.sol\":3613:3625  uint256 mask */\n      0x00\n        /* \"src/lib/TickBitmap.sol\":3630:3647  (1 << bitPos) - 1 */\n      tag_53\n        /* \"src/lib/TickBitmap.sol\":3646:3647  1 */\n      0x01\n        /* \"src/lib/TickBitmap.sol\":3631:3642  1 << bitPos */\n      0xff\n      dup5\n      and\n      dup2\n      swap1\n      shl\n        /* \"src/lib/TickBitmap.sol\":3630:3647  (1 << bitPos) - 1 */\n      tag_34\n      jump\t// in\n    tag_53:\n        /* \"src/lib/TickBitmap.sol\":3680:3693  self[wordPos] */\n      0x01\n      dup5\n      swap1\n      signextend\n        /* \"src/lib/TickBitmap.sol\":3663:3677  uint256 masked */\n      0x00\n        /* \"src/lib/TickBitmap.sol\":3680:3693  self[wordPos] */\n      swap1\n      dup2\n      mstore\n      0x20\n      dup13\n      swap1\n      mstore\n      0x40\n      swap1\n      keccak256\n      sload\n        /* \"src/lib/TickBitmap.sol\":3628:3648  ~((1 << bitPos) - 1) */\n      swap1\n      not\n        /* \"src/lib/TickBitmap.sol\":3680:3700  self[wordPos] & mask */\n      swap1\n      dup2\n      and\n        /* \"src/lib/TickBitmap.sol\":3842:3853  masked != 0 */\n      dup1\n      iszero\n      iszero\n      swap7\n      pop\n        /* \"src/lib/TickBitmap.sol\":3628:3648  ~((1 << bitPos) - 1) */\n      swap1\n      swap2\n      pop\n        /* \"src/lib/TickBitmap.sol\":3842:3853  masked != 0 */\n      dup6\n        /* \"src/lib/TickBitmap.sol\":3986:4205  initialized... */\n      tag_54\n      jumpi\n        /* \"src/lib/TickBitmap.sol\":4194:4205  tickSpacing */\n      dup9\n        /* \"src/lib/TickBitmap.sol\":4163:4187  type(uint8).max - bitPos */\n      tag_55\n        /* \"src/lib/TickBitmap.sol\":4181:4187  bitPos */\n      dup5\n        /* \"src/lib/TickBitmap.sol\":4163:4178  type(uint8).max */\n      0xff\n        /* \"src/lib/TickBitmap.sol\":4163:4187  type(uint8).max - bitPos */\n      tag_46\n      jump\t// in\n    tag_55:\n        /* \"src/lib/TickBitmap.sol\":4155:4189  uint24((type(uint8).max - bitPos)) */\n      0xff\n      and\n        /* \"src/lib/TickBitmap.sol\":4132:4146  compressed + 1 */\n      tag_56\n        /* \"src/lib/TickBitmap.sol\":4132:4142  compressed */\n      dup8\n        /* \"src/lib/TickBitmap.sol\":4145:4146  1 */\n      0x01\n        /* \"src/lib/TickBitmap.sol\":4132:4146  compressed + 1 */\n      tag_52\n      jump\t// in\n    tag_56:\n        /* \"src/lib/TickBitmap.sol\":4132:4190  compressed + 1 + int24(uint24((type(uint8).max - bitPos))) */\n      tag_57\n      swap2\n      swap1\n      tag_52\n      jump\t// in\n    tag_57:\n        /* \"src/lib/TickBitmap.sol\":4131:4205  (compressed + 1 + int24(uint24((type(uint8).max - bitPos)))) * tickSpacing */\n      tag_58\n      swap2\n      swap1\n      tag_41\n      jump\t// in\n    tag_58:\n        /* \"src/lib/TickBitmap.sol\":3986:4205  initialized... */\n      jump(tag_65)\n    tag_54:\n        /* \"src/lib/TickBitmap.sol\":4100:4111  tickSpacing */\n      dup9\n        /* \"src/lib/TickBitmap.sol\":4087:4093  bitPos */\n      dup4\n        /* \"src/lib/TickBitmap.sol\":4049:4084  BitMath.leastSignificantBit(masked) */\n      tag_60\n        /* \"src/lib/TickBitmap.sol\":4077:4083  masked */\n      dup4\n        /* \"src/lib/TickBitmap.sol\":4049:4076  BitMath.leastSignificantBit */\n      tag_61\n        /* \"src/lib/TickBitmap.sol\":4049:4084  BitMath.leastSignificantBit(masked) */\n      jump\t// in\n    tag_60:\n        /* \"src/lib/TickBitmap.sol\":4049:4093  BitMath.leastSignificantBit(masked) - bitPos */\n      tag_62\n      swap2\n      swap1\n      tag_46\n      jump\t// in\n    tag_62:\n        /* \"src/lib/TickBitmap.sol\":4041:4095  uint24((BitMath.leastSignificantBit(masked) - bitPos)) */\n      0xff\n      and\n        /* \"src/lib/TickBitmap.sol\":4018:4032  compressed + 1 */\n      tag_63\n        /* \"src/lib/TickBitmap.sol\":4018:4028  compressed */\n      dup8\n        /* \"src/lib/TickBitmap.sol\":4031:4032  1 */\n      0x01\n        /* \"src/lib/TickBitmap.sol\":4018:4032  compressed + 1 */\n      tag_52\n      jump\t// in\n    tag_63:\n        /* \"src/lib/TickBitmap.sol\":4018:4096  compressed + 1 + int24(uint24((BitMath.leastSignificantBit(masked) - bitPos))) */\n      tag_64\n      swap2\n      swap1\n      tag_52\n      jump\t// in\n    tag_64:\n        /* \"src/lib/TickBitmap.sol\":4017:4111  (compressed + 1 + int24(uint24((BitMath.leastSignificantBit(masked) - bitPos)))) * tickSpacing */\n      tag_65\n      swap2\n      swap1\n      tag_41\n      jump\t// in\n    tag_65:\n        /* \"src/lib/TickBitmap.sol\":3979:4205  next = initialized... */\n      swap7\n      pop\n        /* \"src/lib/TickBitmap.sol\":3370:4217  {... */\n      pop\n      pop\n      pop\n      pop\n        /* \"src/lib/TickBitmap.sol\":2611:4217  if (lte) {... */\n    tag_49:\n        /* \"src/lib/TickBitmap.sol\":2451:4224  {... */\n      pop\n        /* \"src/lib/TickBitmap.sol\":2234:4224  function nextInitializedTickWithinOneWord(... */\n      swap5\n      pop\n      swap5\n      swap3\n      pop\n      pop\n      pop\n      jump\t// out\n        /* \"src/lib/TickBitmap.sol\":699:869  function position(int24 tick) public pure returns (int16 wordPos, uint8 bitPos) {... */\n    tag_14:\n        /* \"src/lib/TickBitmap.sol\":806:815  tick >> 8 */\n      0x02\n      dup2\n      swap1\n      signextend\n        /* \"src/lib/TickBitmap.sol\":814:815  8 */\n      0x08\n        /* \"src/lib/TickBitmap.sol\":806:815  tick >> 8 */\n      sar\n        /* \"src/lib/TickBitmap.sol\":750:763  int16 wordPos */\n      0x00\n        /* \"src/lib/TickBitmap.sol\":849:859  tick % 256 */\n      tag_67\n        /* \"src/lib/TickBitmap.sol\":856:859  256 */\n      0x0100\n        /* \"src/lib/TickBitmap.sol\":806:810  tick */\n      dup5\n        /* \"src/lib/TickBitmap.sol\":849:859  tick % 256 */\n      tag_27\n      jump\t// in\n    tag_67:\n        /* \"src/lib/TickBitmap.sol\":827:861  bitPos = uint8(uint24(tick % 256)) */\n      swap1\n      pop\n        /* \"src/lib/TickBitmap.sol\":699:869  function position(int24 tick) public pure returns (int16 wordPos, uint8 bitPos) {... */\n      swap2\n      pop\n      swap2\n      jump\t// out\n        /* \"src/lib/TickBitmap.sol\":1131:1486  function flipTick(... */\n    tag_21:\n        /* \"src/lib/TickBitmap.sol\":1280:1298  tick % tickSpacing */\n      tag_69\n        /* \"src/lib/TickBitmap.sol\":1287:1298  tickSpacing */\n      dup2\n        /* \"src/lib/TickBitmap.sol\":1280:1284  tick */\n      dup4\n        /* \"src/lib/TickBitmap.sol\":1280:1298  tick % tickSpacing */\n      tag_27\n      jump\t// in\n    tag_69:\n        /* \"src/lib/TickBitmap.sol\":1280:1303  tick % tickSpacing == 0 */\n      0x02\n      signextend\n      iszero\n        /* \"src/lib/TickBitmap.sol\":1272:1304  require(tick % tickSpacing == 0) */\n      tag_70\n      jumpi\n      0x00\n      dup1\n      revert\n    tag_70:\n        /* \"src/lib/TickBitmap.sol\":1350:1363  int16 wordPos */\n      0x00\n      dup1\n        /* \"src/lib/TickBitmap.sol\":1381:1409  position(tick / tickSpacing) */\n      tag_71\n        /* \"src/lib/TickBitmap.sol\":1390:1408  tick / tickSpacing */\n      tag_12\n        /* \"src/lib/TickBitmap.sol\":1397:1408  tickSpacing */\n      dup5\n        /* \"src/lib/TickBitmap.sol\":1390:1394  tick */\n      dup7\n        /* \"src/lib/TickBitmap.sol\":1390:1408  tick / tickSpacing */\n      tag_24\n      jump\t// in\n        /* \"src/lib/TickBitmap.sol\":1381:1409  position(tick / tickSpacing) */\n    tag_71:\n        /* \"src/lib/TickBitmap.sol\":1435:1436  1 */\n      0x01\n        /* \"src/lib/TickBitmap.sol\":1457:1470  self[wordPos] */\n      swap2\n      dup3\n      signextend\n        /* \"src/lib/TickBitmap.sol\":1420:1432  uint256 mask */\n      0x00\n        /* \"src/lib/TickBitmap.sol\":1457:1470  self[wordPos] */\n      swap1\n      dup2\n      mstore\n      0x20\n      swap8\n      swap1\n      swap8\n      mstore\n      0x40\n      swap1\n      swap7\n      keccak256\n        /* \"src/lib/TickBitmap.sol\":1457:1478  self[wordPos] ^= mask */\n      dup1\n      sload\n        /* \"src/lib/TickBitmap.sol\":1435:1446  1 << bitPos */\n      0xff\n      swap1\n      swap8\n      and\n      swap2\n      swap1\n      swap2\n      shl\n        /* \"src/lib/TickBitmap.sol\":1457:1478  self[wordPos] ^= mask */\n      swap1\n      swap6\n      xor\n      swap1\n      swap5\n      sstore\n      pop\n      pop\n      pop\n      pop\n        /* \"src/lib/TickBitmap.sol\":1131:1486  function flipTick(... */\n      jump\t// out\n        /* \"src/lib/BitMath.sol\":683:1446  function mostSignificantBit(uint256 x) internal pure returns (uint8 r) {... */\n    tag_44:\n        /* \"src/lib/BitMath.sol\":745:752  uint8 r */\n      0x00\n        /* \"src/lib/BitMath.sol\":777:778  0 */\n      dup1\n        /* \"src/lib/BitMath.sol\":773:774  x */\n      dup3\n        /* \"src/lib/BitMath.sol\":773:778  x > 0 */\n      gt\n        /* \"src/lib/BitMath.sol\":765:779  require(x > 0) */\n      tag_74\n      jumpi\n      0x00\n      dup1\n      revert\n    tag_74:\n      shl(0x80, 0x01)\n        /* \"src/lib/BitMath.sol\":796:797  x */\n      dup3\n        /* \"src/lib/BitMath.sol\":796:836  x >= 0x100000000000000000000000000000000 */\n      lt\n        /* \"src/lib/BitMath.sol\":792:897  if (x >= 0x100000000000000000000000000000000) {... */\n      tag_75\n      jumpi\n        /* \"src/lib/BitMath.sol\":859:862  128 */\n      0x80\n        /* \"src/lib/BitMath.sol\":853:862  x >>= 128 */\n      swap2\n      dup3\n      shr\n      swap2\n        /* \"src/lib/BitMath.sol\":877:885  r += 128 */\n      tag_76\n      swap1\n      dup3\n      tag_77\n      jump\t// in\n    tag_76:\n      swap1\n      pop\n        /* \"src/lib/BitMath.sol\":792:897  if (x >= 0x100000000000000000000000000000000) {... */\n    tag_75:\n        /* \"src/lib/BitMath.sol\":916:935  0x10000000000000000 */\n      0x010000000000000000\n        /* \"src/lib/BitMath.sol\":911:912  x */\n      dup3\n        /* \"src/lib/BitMath.sol\":911:935  x >= 0x10000000000000000 */\n      lt\n        /* \"src/lib/BitMath.sol\":907:994  if (x >= 0x10000000000000000) {... */\n      tag_78\n      jumpi\n        /* \"src/lib/BitMath.sol\":958:960  64 */\n      0x40\n        /* \"src/lib/BitMath.sol\":952:960  x >>= 64 */\n      swap2\n      dup3\n      shr\n      swap2\n        /* \"src/lib/BitMath.sol\":975:982  r += 64 */\n      tag_79\n      swap1\n      dup3\n      tag_77\n      jump\t// in\n    tag_79:\n      swap1\n      pop\n        /* \"src/lib/BitMath.sol\":907:994  if (x >= 0x10000000000000000) {... */\n    tag_78:\n        /* \"src/lib/BitMath.sol\":1013:1024  0x100000000 */\n      0x0100000000\n        /* \"src/lib/BitMath.sol\":1008:1009  x */\n      dup3\n        /* \"src/lib/BitMath.sol\":1008:1024  x >= 0x100000000 */\n      lt\n        /* \"src/lib/BitMath.sol\":1004:1083  if (x >= 0x100000000) {... */\n      tag_80\n      jumpi\n        /* \"src/lib/BitMath.sol\":1047:1049  32 */\n      0x20\n        /* \"src/lib/BitMath.sol\":1041:1049  x >>= 32 */\n      swap2\n      dup3\n      shr\n      swap2\n        /* \"src/lib/BitMath.sol\":1064:1071  r += 32 */\n      tag_81\n      swap1\n      dup3\n      tag_77\n      jump\t// in\n    tag_81:\n      swap1\n      pop\n        /* \"src/lib/BitMath.sol\":1004:1083  if (x >= 0x100000000) {... */\n    tag_80:\n        /* \"src/lib/BitMath.sol\":1102:1109  0x10000 */\n      0x010000\n        /* \"src/lib/BitMath.sol\":1097:1098  x */\n      dup3\n        /* \"src/lib/BitMath.sol\":1097:1109  x >= 0x10000 */\n      lt\n        /* \"src/lib/BitMath.sol\":1093:1168  if (x >= 0x10000) {... */\n      tag_82\n      jumpi\n        /* \"src/lib/BitMath.sol\":1132:1134  16 */\n      0x10\n        /* \"src/lib/BitMath.sol\":1126:1134  x >>= 16 */\n      swap2\n      dup3\n      shr\n      swap2\n        /* \"src/lib/BitMath.sol\":1149:1156  r += 16 */\n      tag_83\n      swap1\n      dup3\n      tag_77\n      jump\t// in\n    tag_83:\n      swap1\n      pop\n        /* \"src/lib/BitMath.sol\":1093:1168  if (x >= 0x10000) {... */\n    tag_82:\n        /* \"src/lib/BitMath.sol\":1187:1192  0x100 */\n      0x0100\n        /* \"src/lib/BitMath.sol\":1182:1183  x */\n      dup3\n        /* \"src/lib/BitMath.sol\":1182:1192  x >= 0x100 */\n      lt\n        /* \"src/lib/BitMath.sol\":1178:1249  if (x >= 0x100) {... */\n      tag_84\n      jumpi\n        /* \"src/lib/BitMath.sol\":1215:1216  8 */\n      0x08\n        /* \"src/lib/BitMath.sol\":1209:1216  x >>= 8 */\n      swap2\n      dup3\n      shr\n      swap2\n        /* \"src/lib/BitMath.sol\":1231:1237  r += 8 */\n      tag_85\n      swap1\n      dup3\n      tag_77\n      jump\t// in\n    tag_85:\n      swap1\n      pop\n        /* \"src/lib/BitMath.sol\":1178:1249  if (x >= 0x100) {... */\n    tag_84:\n        /* \"src/lib/BitMath.sol\":1268:1272  0x10 */\n      0x10\n        /* \"src/lib/BitMath.sol\":1263:1264  x */\n      dup3\n        /* \"src/lib/BitMath.sol\":1263:1272  x >= 0x10 */\n      lt\n        /* \"src/lib/BitMath.sol\":1259:1329  if (x >= 0x10) {... */\n      tag_86\n      jumpi\n        /* \"src/lib/BitMath.sol\":1295:1296  4 */\n      0x04\n        /* \"src/lib/BitMath.sol\":1289:1296  x >>= 4 */\n      swap2\n      dup3\n      shr\n      swap2\n        /* \"src/lib/BitMath.sol\":1311:1317  r += 4 */\n      tag_87\n      swap1\n      dup3\n      tag_77\n      jump\t// in\n    tag_87:\n      swap1\n      pop\n        /* \"src/lib/BitMath.sol\":1259:1329  if (x >= 0x10) {... */\n    tag_86:\n        /* \"src/lib/BitMath.sol\":1348:1351  0x4 */\n      0x04\n        /* \"src/lib/BitMath.sol\":1343:1344  x */\n      dup3\n        /* \"src/lib/BitMath.sol\":1343:1351  x >= 0x4 */\n      lt\n        /* \"src/lib/BitMath.sol\":1339:1408  if (x >= 0x4) {... */\n      tag_88\n      jumpi\n        /* \"src/lib/BitMath.sol\":1374:1375  2 */\n      0x02\n        /* \"src/lib/BitMath.sol\":1368:1375  x >>= 2 */\n      swap2\n      dup3\n      shr\n      swap2\n        /* \"src/lib/BitMath.sol\":1390:1396  r += 2 */\n      tag_89\n      swap1\n      dup3\n      tag_77\n      jump\t// in\n    tag_89:\n      swap1\n      pop\n        /* \"src/lib/BitMath.sol\":1339:1408  if (x >= 0x4) {... */\n    tag_88:\n        /* \"src/lib/BitMath.sol\":1427:1430  0x2 */\n      0x02\n        /* \"src/lib/BitMath.sol\":1422:1423  x */\n      dup3\n        /* \"src/lib/BitMath.sol\":1422:1430  x >= 0x2 */\n      lt\n        /* \"src/lib/BitMath.sol\":1418:1438  if (x >= 0x2) r += 1 */\n      tag_90\n      jumpi\n        /* \"src/lib/BitMath.sol\":1432:1438  r += 1 */\n      tag_91\n        /* \"src/lib/BitMath.sol\":1437:1438  1 */\n      0x01\n        /* \"src/lib/BitMath.sol\":1432:1438  r += 1 */\n      dup3\n      tag_77\n      jump\t// in\n    tag_91:\n      swap1\n      pop\n        /* \"src/lib/BitMath.sol\":1418:1438  if (x >= 0x2) r += 1 */\n    tag_90:\n        /* \"src/lib/BitMath.sol\":683:1446  function mostSignificantBit(uint256 x) internal pure returns (uint8 r) {... */\n      swap2\n      swap1\n      pop\n      jump\t// out\n        /* \"src/lib/BitMath.sol\":1945:2879  function leastSignificantBit(uint256 x) internal pure returns (uint8 r) {... */\n    tag_61:\n        /* \"src/lib/BitMath.sol\":2008:2015  uint8 r */\n      0x00\n        /* \"src/lib/BitMath.sol\":2040:2041  0 */\n      dup1\n        /* \"src/lib/BitMath.sol\":2036:2037  x */\n      dup3\n        /* \"src/lib/BitMath.sol\":2036:2041  x > 0 */\n      gt\n        /* \"src/lib/BitMath.sol\":2028:2042  require(x > 0) */\n      tag_93\n      jumpi\n      0x00\n      dup1\n      revert\n    tag_93:\n      pop\n        /* \"src/lib/BitMath.sol\":2059:2062  255 */\n      0xff\n        /* \"src/lib/BitMath.sol\":2081:2098  type(uint128).max */\n      0xffffffffffffffffffffffffffffffff\n        /* \"src/lib/BitMath.sol\":2077:2098  x & type(uint128).max */\n      dup3\n      and\n        /* \"src/lib/BitMath.sol\":2077:2102  x & type(uint128).max > 0 */\n      iszero\n        /* \"src/lib/BitMath.sol\":2073:2181  if (x & type(uint128).max > 0) {... */\n      tag_94\n      jumpi\n        /* \"src/lib/BitMath.sol\":2119:2127  r -= 128 */\n      tag_95\n        /* \"src/lib/BitMath.sol\":2124:2127  128 */\n      0x80\n        /* \"src/lib/BitMath.sol\":2119:2127  r -= 128 */\n      dup3\n      tag_46\n      jump\t// in\n    tag_95:\n      swap1\n      pop\n        /* \"src/lib/BitMath.sol\":2073:2181  if (x & type(uint128).max > 0) {... */\n      jump(tag_96)\n    tag_94:\n        /* \"src/lib/BitMath.sol\":2166:2169  128 */\n      0x80\n        /* \"src/lib/BitMath.sol\":2160:2169  x >>= 128 */\n      dup3\n      swap1\n      shr\n      swap2\n      pop\n        /* \"src/lib/BitMath.sol\":2073:2181  if (x & type(uint128).max > 0) {... */\n    tag_96:\n        /* \"src/lib/BitMath.sol\":2199:2215  type(uint64).max */\n      0xffffffffffffffff\n        /* \"src/lib/BitMath.sol\":2195:2215  x & type(uint64).max */\n      dup3\n      and\n        /* \"src/lib/BitMath.sol\":2195:2219  x & type(uint64).max > 0 */\n      iszero\n        /* \"src/lib/BitMath.sol\":2191:2296  if (x & type(uint64).max > 0) {... */\n      tag_97\n      jumpi\n        /* \"src/lib/BitMath.sol\":2236:2243  r -= 64 */\n      tag_98\n        /* \"src/lib/BitMath.sol\":2241:2243  64 */\n      0x40\n        /* \"src/lib/BitMath.sol\":2236:2243  r -= 64 */\n      dup3\n      tag_46\n      jump\t// in\n    tag_98:\n      swap1\n      pop\n        /* \"src/lib/BitMath.sol\":2191:2296  if (x & type(uint64).max > 0) {... */\n      jump(tag_99)\n    tag_97:\n        /* \"src/lib/BitMath.sol\":2282:2284  64 */\n      0x40\n        /* \"src/lib/BitMath.sol\":2276:2284  x >>= 64 */\n      dup3\n      swap1\n      shr\n      swap2\n      pop\n        /* \"src/lib/BitMath.sol\":2191:2296  if (x & type(uint64).max > 0) {... */\n    tag_99:\n        /* \"src/lib/BitMath.sol\":2314:2330  type(uint32).max */\n      0xffffffff\n        /* \"src/lib/BitMath.sol\":2310:2330  x & type(uint32).max */\n      dup3\n      and\n        /* \"src/lib/BitMath.sol\":2310:2334  x & type(uint32).max > 0 */\n      iszero\n        /* \"src/lib/BitMath.sol\":2306:2411  if (x & type(uint32).max > 0) {... */\n      tag_100\n      jumpi\n        /* \"src/lib/BitMath.sol\":2351:2358  r -= 32 */\n      tag_101\n        /* \"src/lib/BitMath.sol\":2356:2358  32 */\n      0x20\n        /* \"src/lib/BitMath.sol\":2351:2358  r -= 32 */\n      dup3\n      tag_46\n      jump\t// in\n    tag_101:\n      swap1\n      pop\n        /* \"src/lib/BitMath.sol\":2306:2411  if (x & type(uint32).max > 0) {... */\n      jump(tag_102)\n    tag_100:\n        /* \"src/lib/BitMath.sol\":2397:2399  32 */\n      0x20\n        /* \"src/lib/BitMath.sol\":2391:2399  x >>= 32 */\n      dup3\n      swap1\n      shr\n      swap2\n      pop\n        /* \"src/lib/BitMath.sol\":2306:2411  if (x & type(uint32).max > 0) {... */\n    tag_102:\n        /* \"src/lib/BitMath.sol\":2429:2445  type(uint16).max */\n      0xffff\n        /* \"src/lib/BitMath.sol\":2425:2445  x & type(uint16).max */\n      dup3\n      and\n        /* \"src/lib/BitMath.sol\":2425:2449  x & type(uint16).max > 0 */\n      iszero\n        /* \"src/lib/BitMath.sol\":2421:2526  if (x & type(uint16).max > 0) {... */\n      tag_103\n      jumpi\n        /* \"src/lib/BitMath.sol\":2466:2473  r -= 16 */\n      tag_104\n        /* \"src/lib/BitMath.sol\":2471:2473  16 */\n      0x10\n        /* \"src/lib/BitMath.sol\":2466:2473  r -= 16 */\n      dup3\n      tag_46\n      jump\t// in\n    tag_104:\n      swap1\n      pop\n        /* \"src/lib/BitMath.sol\":2421:2526  if (x & type(uint16).max > 0) {... */\n      jump(tag_105)\n    tag_103:\n        /* \"src/lib/BitMath.sol\":2512:2514  16 */\n      0x10\n        /* \"src/lib/BitMath.sol\":2506:2514  x >>= 16 */\n      dup3\n      swap1\n      shr\n      swap2\n      pop\n        /* \"src/lib/BitMath.sol\":2421:2526  if (x & type(uint16).max > 0) {... */\n    tag_105:\n        /* \"src/lib/BitMath.sol\":2544:2559  type(uint8).max */\n      0xff\n        /* \"src/lib/BitMath.sol\":2540:2559  x & type(uint8).max */\n      dup3\n      and\n        /* \"src/lib/BitMath.sol\":2540:2563  x & type(uint8).max > 0 */\n      iszero\n        /* \"src/lib/BitMath.sol\":2536:2638  if (x & type(uint8).max > 0) {... */\n      tag_106\n      jumpi\n        /* \"src/lib/BitMath.sol\":2580:2586  r -= 8 */\n      tag_107\n        /* \"src/lib/BitMath.sol\":2585:2586  8 */\n      0x08\n        /* \"src/lib/BitMath.sol\":2580:2586  r -= 8 */\n      dup3\n      tag_46\n      jump\t// in\n    tag_107:\n      swap1\n      pop\n        /* \"src/lib/BitMath.sol\":2536:2638  if (x & type(uint8).max > 0) {... */\n      jump(tag_108)\n    tag_106:\n        /* \"src/lib/BitMath.sol\":2625:2626  8 */\n      0x08\n        /* \"src/lib/BitMath.sol\":2619:2626  x >>= 8 */\n      dup3\n      swap1\n      shr\n      swap2\n      pop\n        /* \"src/lib/BitMath.sol\":2536:2638  if (x & type(uint8).max > 0) {... */\n    tag_108:\n        /* \"src/lib/BitMath.sol\":2656:2659  0xf */\n      0x0f\n        /* \"src/lib/BitMath.sol\":2652:2659  x & 0xf */\n      dup3\n      and\n        /* \"src/lib/BitMath.sol\":2652:2663  x & 0xf > 0 */\n      iszero\n        /* \"src/lib/BitMath.sol\":2648:2738  if (x & 0xf > 0) {... */\n      tag_109\n      jumpi\n        /* \"src/lib/BitMath.sol\":2680:2686  r -= 4 */\n      tag_110\n        /* \"src/lib/BitMath.sol\":2685:2686  4 */\n      0x04\n        /* \"src/lib/BitMath.sol\":2680:2686  r -= 4 */\n      dup3\n      tag_46\n      jump\t// in\n    tag_110:\n      swap1\n      pop\n        /* \"src/lib/BitMath.sol\":2648:2738  if (x & 0xf > 0) {... */\n      jump(tag_111)\n    tag_109:\n        /* \"src/lib/BitMath.sol\":2725:2726  4 */\n      0x04\n        /* \"src/lib/BitMath.sol\":2719:2726  x >>= 4 */\n      dup3\n      swap1\n      shr\n      swap2\n      pop\n        /* \"src/lib/BitMath.sol\":2648:2738  if (x & 0xf > 0) {... */\n    tag_111:\n        /* \"src/lib/BitMath.sol\":2756:2759  0x3 */\n      0x03\n        /* \"src/lib/BitMath.sol\":2752:2759  x & 0x3 */\n      dup3\n      and\n        /* \"src/lib/BitMath.sol\":2752:2763  x & 0x3 > 0 */\n      iszero\n        /* \"src/lib/BitMath.sol\":2748:2838  if (x & 0x3 > 0) {... */\n      tag_112\n      jumpi\n        /* \"src/lib/BitMath.sol\":2780:2786  r -= 2 */\n      tag_113\n        /* \"src/lib/BitMath.sol\":2785:2786  2 */\n      0x02\n        /* \"src/lib/BitMath.sol\":2780:2786  r -= 2 */\n      dup3\n      tag_46\n      jump\t// in\n    tag_113:\n      swap1\n      pop\n        /* \"src/lib/BitMath.sol\":2748:2838  if (x & 0x3 > 0) {... */\n      jump(tag_114)\n    tag_112:\n        /* \"src/lib/BitMath.sol\":2825:2826  2 */\n      0x02\n        /* \"src/lib/BitMath.sol\":2819:2826  x >>= 2 */\n      dup3\n      swap1\n      shr\n      swap2\n      pop\n        /* \"src/lib/BitMath.sol\":2748:2838  if (x & 0x3 > 0) {... */\n    tag_114:\n        /* \"src/lib/BitMath.sol\":2856:2859  0x1 */\n      0x01\n        /* \"src/lib/BitMath.sol\":2852:2859  x & 0x1 */\n      dup3\n      and\n        /* \"src/lib/BitMath.sol\":2852:2863  x & 0x1 > 0 */\n      iszero\n        /* \"src/lib/BitMath.sol\":2848:2871  if (x & 0x1 > 0) r -= 1 */\n      tag_90\n      jumpi\n        /* \"src/lib/BitMath.sol\":2865:2871  r -= 1 */\n      tag_91\n        /* \"src/lib/BitMath.sol\":2870:2871  1 */\n      0x01\n        /* \"src/lib/BitMath.sol\":2865:2871  r -= 1 */\n      dup3\n      tag_46\n      jump\t// in\n        /* \"#utility.yul\":14:174   */\n    tag_117:\n        /* \"#utility.yul\":80:100   */\n      dup1\n      calldataload\n        /* \"#utility.yul\":140:141   */\n      0x02\n        /* \"#utility.yul\":129:149   */\n      dup2\n      swap1\n      signextend\n        /* \"#utility.yul\":119:150   */\n      dup2\n      eq\n        /* \"#utility.yul\":109:168   */\n      tag_90\n      jumpi\n        /* \"#utility.yul\":164:165   */\n      0x00\n        /* \"#utility.yul\":161:162   */\n      dup1\n        /* \"#utility.yul\":154:166   */\n      revert\n        /* \"#utility.yul\":179:738   */\n    tag_7:\n        /* \"#utility.yul\":281:287   */\n      0x00\n        /* \"#utility.yul\":289:295   */\n      dup1\n        /* \"#utility.yul\":297:303   */\n      0x00\n        /* \"#utility.yul\":305:311   */\n      dup1\n        /* \"#utility.yul\":358:361   */\n      0x80\n        /* \"#utility.yul\":346:355   */\n      dup6\n        /* \"#utility.yul\":337:344   */\n      dup8\n        /* \"#utility.yul\":333:356   */\n      sub\n        /* \"#utility.yul\":329:362   */\n      slt\n        /* \"#utility.yul\":326:379   */\n      iszero\n      tag_124\n      jumpi\n        /* \"#utility.yul\":375:376   */\n      0x00\n        /* \"#utility.yul\":372:373   */\n      dup1\n        /* \"#utility.yul\":365:377   */\n      revert\n        /* \"#utility.yul\":326:379   */\n    tag_124:\n        /* \"#utility.yul\":420:443   */\n      dup5\n      calldataload\n      swap4\n      pop\n        /* \"#utility.yul\":486:522   */\n      tag_125\n        /* \"#utility.yul\":518:520   */\n      0x20\n        /* \"#utility.yul\":503:521   */\n      dup7\n      add\n        /* \"#utility.yul\":486:522   */\n      tag_117\n      jump\t// in\n    tag_125:\n        /* \"#utility.yul\":476:522   */\n      swap3\n      pop\n        /* \"#utility.yul\":541:577   */\n      tag_126\n        /* \"#utility.yul\":573:575   */\n      0x40\n        /* \"#utility.yul\":562:571   */\n      dup7\n        /* \"#utility.yul\":558:576   */\n      add\n        /* \"#utility.yul\":541:577   */\n      tag_117\n      jump\t// in\n    tag_126:\n        /* \"#utility.yul\":531:577   */\n      swap2\n      pop\n        /* \"#utility.yul\":629:631   */\n      0x60\n        /* \"#utility.yul\":618:627   */\n      dup6\n        /* \"#utility.yul\":614:632   */\n      add\n        /* \"#utility.yul\":601:633   */\n      calldataload\n        /* \"#utility.yul\":678:685   */\n      dup1\n        /* \"#utility.yul\":671:686   */\n      iszero\n        /* \"#utility.yul\":664:687   */\n      iszero\n        /* \"#utility.yul\":655:662   */\n      dup2\n        /* \"#utility.yul\":652:688   */\n      eq\n        /* \"#utility.yul\":642:706   */\n      tag_127\n      jumpi\n        /* \"#utility.yul\":702:703   */\n      0x00\n        /* \"#utility.yul\":699:700   */\n      dup1\n        /* \"#utility.yul\":692:704   */\n      revert\n        /* \"#utility.yul\":642:706   */\n    tag_127:\n        /* \"#utility.yul\":179:738   */\n      swap4\n      swap7\n      swap3\n      swap6\n      pop\n      swap1\n      swap4\n      pop\n      pop\n      jump\t// out\n        /* \"#utility.yul\":1025:1207   */\n    tag_13:\n        /* \"#utility.yul\":1082:1088   */\n      0x00\n        /* \"#utility.yul\":1135:1137   */\n      0x20\n        /* \"#utility.yul\":1123:1132   */\n      dup3\n        /* \"#utility.yul\":1114:1121   */\n      dup5\n        /* \"#utility.yul\":1110:1133   */\n      sub\n        /* \"#utility.yul\":1106:1138   */\n      slt\n        /* \"#utility.yul\":1103:1155   */\n      iszero\n      tag_130\n      jumpi\n        /* \"#utility.yul\":1151:1152   */\n      0x00\n        /* \"#utility.yul\":1148:1149   */\n      dup1\n        /* \"#utility.yul\":1141:1153   */\n      revert\n        /* \"#utility.yul\":1103:1155   */\n    tag_130:\n        /* \"#utility.yul\":1174:1201   */\n      tag_131\n        /* \"#utility.yul\":1191:1200   */\n      dup3\n        /* \"#utility.yul\":1174:1201   */\n      tag_117\n      jump\t// in\n    tag_131:\n        /* \"#utility.yul\":1164:1201   */\n      swap4\n        /* \"#utility.yul\":1025:1207   */\n      swap3\n      pop\n      pop\n      pop\n      jump\t// out\n        /* \"#utility.yul\":1491:1880   */\n    tag_20:\n        /* \"#utility.yul\":1587:1593   */\n      0x00\n        /* \"#utility.yul\":1595:1601   */\n      dup1\n        /* \"#utility.yul\":1603:1609   */\n      0x00\n        /* \"#utility.yul\":1656:1658   */\n      0x60\n        /* \"#utility.yul\":1644:1653   */\n      dup5\n        /* \"#utility.yul\":1635:1642   */\n      dup7\n        /* \"#utility.yul\":1631:1654   */\n      sub\n        /* \"#utility.yul\":1627:1659   */\n      slt\n        /* \"#utility.yul\":1624:1676   */\n      iszero\n      tag_134\n      jumpi\n        /* \"#utility.yul\":1672:1673   */\n      0x00\n        /* \"#utility.yul\":1669:1670   */\n      dup1\n        /* \"#utility.yul\":1662:1674   */\n      revert\n        /* \"#utility.yul\":1624:1676   */\n    tag_134:\n        /* \"#utility.yul\":1717:1740   */\n      dup4\n      calldataload\n      swap3\n      pop\n        /* \"#utility.yul\":1783:1819   */\n      tag_135\n        /* \"#utility.yul\":1815:1817   */\n      0x20\n        /* \"#utility.yul\":1800:1818   */\n      dup6\n      add\n        /* \"#utility.yul\":1783:1819   */\n      tag_117\n      jump\t// in\n    tag_135:\n        /* \"#utility.yul\":1773:1819   */\n      swap2\n      pop\n        /* \"#utility.yul\":1838:1874   */\n      tag_136\n        /* \"#utility.yul\":1870:1872   */\n      0x40\n        /* \"#utility.yul\":1859:1868   */\n      dup6\n        /* \"#utility.yul\":1855:1873   */\n      add\n        /* \"#utility.yul\":1838:1874   */\n      tag_117\n      jump\t// in\n    tag_136:\n        /* \"#utility.yul\":1828:1874   */\n      swap1\n      pop\n        /* \"#utility.yul\":1491:1880   */\n      swap3\n      pop\n      swap3\n      pop\n      swap3\n      jump\t// out\n        /* \"#utility.yul\":1885:2012   */\n    tag_118:\n        /* \"#utility.yul\":1946:1956   */\n      0x4e487b71\n        /* \"#utility.yul\":1941:1944   */\n      0xe0\n        /* \"#utility.yul\":1937:1957   */\n      shl\n        /* \"#utility.yul\":1934:1935   */\n      0x00\n        /* \"#utility.yul\":1927:1958   */\n      mstore\n        /* \"#utility.yul\":1977:1981   */\n      0x12\n        /* \"#utility.yul\":1974:1975   */\n      0x04\n        /* \"#utility.yul\":1967:1982   */\n      mstore\n        /* \"#utility.yul\":2001:2005   */\n      0x24\n        /* \"#utility.yul\":1998:1999   */\n      0x00\n        /* \"#utility.yul\":1991:2006   */\n      revert\n        /* \"#utility.yul\":2017:2144   */\n    tag_119:\n        /* \"#utility.yul\":2078:2088   */\n      0x4e487b71\n        /* \"#utility.yul\":2073:2076   */\n      0xe0\n        /* \"#utility.yul\":2069:2089   */\n      shl\n        /* \"#utility.yul\":2066:2067   */\n      0x00\n        /* \"#utility.yul\":2059:2090   */\n      mstore\n        /* \"#utility.yul\":2109:2113   */\n      0x11\n        /* \"#utility.yul\":2106:2107   */\n      0x04\n        /* \"#utility.yul\":2099:2114   */\n      mstore\n        /* \"#utility.yul\":2133:2137   */\n      0x24\n        /* \"#utility.yul\":2130:2131   */\n      0x00\n        /* \"#utility.yul\":2123:2138   */\n      revert\n        /* \"#utility.yul\":2149:2424   */\n    tag_24:\n        /* \"#utility.yul\":2187:2188   */\n      0x00\n        /* \"#utility.yul\":2228:2229   */\n      dup2\n        /* \"#utility.yul\":2225:2226   */\n      0x02\n        /* \"#utility.yul\":2214:2230   */\n      signextend\n        /* \"#utility.yul\":2264:2265   */\n      dup4\n        /* \"#utility.yul\":2261:2262   */\n      0x02\n        /* \"#utility.yul\":2250:2266   */\n      signextend\n        /* \"#utility.yul\":2285:2288   */\n      dup1\n        /* \"#utility.yul\":2275:2312   */\n      tag_141\n      jumpi\n        /* \"#utility.yul\":2292:2310   */\n      tag_141\n      tag_118\n      jump\t// in\n    tag_141:\n      not(0x7fffff)\n        /* \"#utility.yul\":2328:2349   */\n      dup3\n      eq\n      not(0x00)\n        /* \"#utility.yul\":2351:2366   */\n      dup3\n      eq\n        /* \"#utility.yul\":2324:2367   */\n      and\n        /* \"#utility.yul\":2321:2390   */\n      iszero\n      tag_143\n      jumpi\n        /* \"#utility.yul\":2370:2388   */\n      tag_143\n      tag_119\n      jump\t// in\n    tag_143:\n        /* \"#utility.yul\":2404:2418   */\n      swap1\n      sdiv\n      swap4\n        /* \"#utility.yul\":2149:2424   */\n      swap3\n      pop\n      pop\n      pop\n      jump\t// out\n        /* \"#utility.yul\":2429:2595   */\n    tag_27:\n        /* \"#utility.yul\":2459:2460   */\n      0x00\n        /* \"#utility.yul\":2500:2501   */\n      dup3\n        /* \"#utility.yul\":2497:2498   */\n      0x02\n        /* \"#utility.yul\":2486:2502   */\n      signextend\n        /* \"#utility.yul\":2521:2524   */\n      dup1\n        /* \"#utility.yul\":2511:2548   */\n      tag_146\n      jumpi\n        /* \"#utility.yul\":2528:2546   */\n      tag_146\n      tag_118\n      jump\t// in\n    tag_146:\n        /* \"#utility.yul\":2585:2588   */\n      dup1\n        /* \"#utility.yul\":2581:2582   */\n      dup4\n        /* \"#utility.yul\":2578:2579   */\n      0x02\n        /* \"#utility.yul\":2567:2583   */\n      signextend\n        /* \"#utility.yul\":2562:2589   */\n      smod\n        /* \"#utility.yul\":2557:2589   */\n      swap2\n      pop\n      pop\n        /* \"#utility.yul\":2429:2595   */\n      swap3\n      swap2\n      pop\n      pop\n      jump\t// out\n        /* \"#utility.yul\":2600:2792   */\n    tag_30:\n        /* \"#utility.yul\":2637:2640   */\n      0x00\n        /* \"#utility.yul\":2684:2689   */\n      dup2\n        /* \"#utility.yul\":2681:2682   */\n      0x02\n        /* \"#utility.yul\":2670:2690   */\n      signextend\n        /* \"#utility.yul\":2718:2725   */\n      0x7fffff\n        /* \"#utility.yul\":2714:2726   */\n      not\n        /* \"#utility.yul\":2705:2712   */\n      dup2\n        /* \"#utility.yul\":2702:2727   */\n      sub\n        /* \"#utility.yul\":2699:2750   */\n      tag_149\n      jumpi\n        /* \"#utility.yul\":2730:2748   */\n      tag_149\n      tag_119\n      jump\t// in\n    tag_149:\n      not(0x00)\n        /* \"#utility.yul\":2766:2786   */\n      add\n      swap3\n        /* \"#utility.yul\":2600:2792   */\n      swap2\n      pop\n      pop\n      jump\t// out\n        /* \"#utility.yul\":2797:2925   */\n    tag_34:\n        /* \"#utility.yul\":2864:2873   */\n      dup2\n      dup2\n      sub\n        /* \"#utility.yul\":2885:2896   */\n      dup2\n      dup2\n      gt\n        /* \"#utility.yul\":2882:2919   */\n      iszero\n      tag_152\n      jumpi\n        /* \"#utility.yul\":2899:2917   */\n      tag_152\n      tag_119\n      jump\t// in\n    tag_152:\n        /* \"#utility.yul\":2797:2925   */\n      swap3\n      swap2\n      pop\n      pop\n      jump\t// out\n        /* \"#utility.yul\":2930:3055   */\n    tag_36:\n        /* \"#utility.yul\":2995:3004   */\n      dup1\n      dup3\n      add\n        /* \"#utility.yul\":3016:3026   */\n      dup1\n      dup3\n      gt\n        /* \"#utility.yul\":3013:3049   */\n      iszero\n      tag_152\n      jumpi\n        /* \"#utility.yul\":3029:3047   */\n      tag_152\n      tag_119\n      jump\t// in\n        /* \"#utility.yul\":3060:3253   */\n    tag_39:\n        /* \"#utility.yul\":3158:3159   */\n      0x02\n        /* \"#utility.yul\":3147:3163   */\n      dup3\n      dup2\n      signextend\n        /* \"#utility.yul\":3129:3145   */\n      swap1\n      dup3\n      swap1\n      signextend\n        /* \"#utility.yul\":3125:3164   */\n      sub\n      not(0x7fffff)\n        /* \"#utility.yul\":3179:3202   */\n      dup2\n      slt\n        /* \"#utility.yul\":3214:3222   */\n      0x7fffff\n        /* \"#utility.yul\":3204:3223   */\n      dup3\n      sgt\n        /* \"#utility.yul\":3176:3224   */\n      or\n        /* \"#utility.yul\":3173:3247   */\n      iszero\n      tag_152\n      jumpi\n        /* \"#utility.yul\":3227:3245   */\n      tag_152\n      tag_119\n      jump\t// in\n        /* \"#utility.yul\":3258:3495   */\n    tag_41:\n        /* \"#utility.yul\":3296:3303   */\n      0x00\n        /* \"#utility.yul\":3373:3374   */\n      dup3\n        /* \"#utility.yul\":3370:3371   */\n      0x02\n        /* \"#utility.yul\":3359:3375   */\n      signextend\n        /* \"#utility.yul\":3355:3356   */\n      dup3\n        /* \"#utility.yul\":3352:3353   */\n      0x02\n        /* \"#utility.yul\":3341:3357   */\n      signextend\n        /* \"#utility.yul\":3337:3376   */\n      mul\n        /* \"#utility.yul\":3410:3421   */\n      dup1\n        /* \"#utility.yul\":3407:3408   */\n      0x02\n        /* \"#utility.yul\":3396:3422   */\n      signextend\n        /* \"#utility.yul\":3385:3422   */\n      swap2\n      pop\n        /* \"#utility.yul\":3453:3464   */\n      dup1\n        /* \"#utility.yul\":3444:3451   */\n      dup3\n        /* \"#utility.yul\":3441:3465   */\n      eq\n        /* \"#utility.yul\":3431:3489   */\n      tag_161\n      jumpi\n        /* \"#utility.yul\":3469:3487   */\n      tag_161\n      tag_119\n      jump\t// in\n    tag_161:\n        /* \"#utility.yul\":3431:3489   */\n      pop\n        /* \"#utility.yul\":3258:3495   */\n      swap3\n      swap2\n      pop\n      pop\n      jump\t// out\n        /* \"#utility.yul\":3500:3651   */\n    tag_46:\n        /* \"#utility.yul\":3590:3594   */\n      0xff\n        /* \"#utility.yul\":3583:3595   */\n      dup3\n      dup2\n      and\n        /* \"#utility.yul\":3569:3581   */\n      dup3\n      dup3\n      and\n        /* \"#utility.yul\":3565:3596   */\n      sub\n      swap1\n        /* \"#utility.yul\":3608:3622   */\n      dup2\n      gt\n        /* \"#utility.yul\":3605:3645   */\n      iszero\n      tag_152\n      jumpi\n        /* \"#utility.yul\":3625:3643   */\n      tag_152\n      tag_119\n      jump\t// in\n        /* \"#utility.yul\":3656:3845   */\n    tag_52:\n        /* \"#utility.yul\":3752:3753   */\n      0x02\n        /* \"#utility.yul\":3723:3739   */\n      dup2\n      dup2\n      signextend\n        /* \"#utility.yul\":3741:3757   */\n      swap1\n      dup4\n      swap1\n      signextend\n        /* \"#utility.yul\":3719:3758   */\n      add\n        /* \"#utility.yul\":3806:3813   */\n      0x7fffff\n        /* \"#utility.yul\":3773:3791   */\n      dup2\n      sgt\n      not(0x7fffff)\n        /* \"#utility.yul\":3793:3815   */\n      dup3\n      slt\n        /* \"#utility.yul\":3770:3816   */\n      or\n        /* \"#utility.yul\":3767:3839   */\n      iszero\n      tag_152\n      jumpi\n        /* \"#utility.yul\":3819:3837   */\n      tag_152\n      tag_119\n      jump\t// in\n        /* \"#utility.yul\":3850:3998   */\n    tag_77:\n        /* \"#utility.yul\":3938:3942   */\n      0xff\n        /* \"#utility.yul\":3917:3929   */\n      dup2\n      dup2\n      and\n        /* \"#utility.yul\":3931:3943   */\n      dup4\n      dup3\n      and\n        /* \"#utility.yul\":3913:3944   */\n      add\n      swap1\n        /* \"#utility.yul\":3956:3969   */\n      dup2\n      gt\n        /* \"#utility.yul\":3953:3992   */\n      iszero\n      tag_152\n      jumpi\n        /* \"#utility.yul\":3972:3990   */\n      tag_152\n      tag_119\n      jump\t// in\n\n    auxdata: 0xa26469706673582212209ee4d7a7ac053e6201ad25e14019fe81848cd0a9c3797c00f1fd07b7a2ccab7264736f6c634300081a0033\n}\n",
				"bytecode": {
					"linkReferences": {},
					"object": "61079b610039600b82828239805160001a607314602c57634e487b7160e01b600052600060045260246000fd5b30600052607381538281f3fe730000000000000000000000000000000000000000301460806040526004361061004b5760003560e01c8063120b7ff9146100505780633e7b7779146100825780639c4bba91146100b1575b600080fd5b61006361005e366004610539565b6100d3565b6040805160029390930b83529015156020830152015b60405180910390f35b61009561009036600461058d565b61028b565b6040805160019390930b835260ff909116602083015201610079565b8180156100bd57600080fd5b506100d16100cc3660046105af565b6102a8565b005b600080806100e18587610617565b905060008660020b12801561010157506100fb8587610651565b60020b15155b15610114578061011081610673565b9150505b83156101c1576000806101268361028b565b90925090506000600160ff831681901b906101419082610696565b61014b91906106af565b600184900b600090815260208c90526040902054811680151596509091508561018b578861017c60ff8516876106c2565b61018691906106e7565b6101b6565b88610195826102fb565b61019f908561070e565b6101ac9060ff16876106c2565b6101b691906106e7565b965050505050610281565b6000806101d2610090846001610727565b909250905060006101ea600160ff841681901b610696565b600184900b600090815260208c905260409020549019908116801515965090915085610243578861021c8460ff61070e565b60ff1661022a876001610727565b6102349190610727565b61023e91906106e7565b61027a565b888361024e836103f3565b610258919061070e565b60ff16610266876001610727565b6102709190610727565b61027a91906106e7565b9650505050505b5094509492505050565b600281900b60081d60006102a161010084610651565b9050915091565b6102b28183610651565b60020b156102bf57600080fd5b6000806102cf6100908486610617565b600191820b60009081526020979097526040909620805460ff9097169190911b90951890945550505050565b600080821161030957600080fd5b600160801b821061032757608091821c91610324908261074c565b90505b68010000000000000000821061034a57604091821c91610347908261074c565b90505b640100000000821061036957602091821c91610366908261074c565b90505b62010000821061038657601091821c91610383908261074c565b90505b61010082106103a257600891821c9161039f908261074c565b90505b601082106103bd57600491821c916103ba908261074c565b90505b600482106103d857600291821c916103d5908261074c565b90505b600282106103ee576103eb60018261074c565b90505b919050565b600080821161040157600080fd5b5060ff6fffffffffffffffffffffffffffffffff82161561042e5761042760808261070e565b9050610436565b608082901c91505b67ffffffffffffffff8216156104585761045160408261070e565b9050610460565b604082901c91505b63ffffffff82161561047e5761047760208261070e565b9050610486565b602082901c91505b61ffff8216156104a25761049b60108261070e565b90506104aa565b601082901c91505b60ff8216156104c5576104be60088261070e565b90506104cd565b600882901c91505b600f8216156104e8576104e160048261070e565b90506104f0565b600482901c91505b600382161561050b5761050460028261070e565b9050610513565b600282901c91505b60018216156103ee576103eb60018261070e565b8035600281900b81146103ee57600080fd5b6000806000806080858703121561054f57600080fd5b8435935061055f60208601610527565b925061056d60408601610527565b91506060850135801515811461058257600080fd5b939692955090935050565b60006020828403121561059f57600080fd5b6105a882610527565b9392505050565b6000806000606084860312156105c457600080fd5b833592506105d460208501610527565b91506105e260408501610527565b90509250925092565b634e487b7160e01b600052601260045260246000fd5b634e487b7160e01b600052601160045260246000fd5b60008160020b8360020b8061062e5761062e6105eb565b627fffff1982146000198214161561064857610648610601565b90059392505050565b60008260020b80610664576106646105eb565b808360020b0791505092915050565b60008160020b627fffff19810361068c5761068c610601565b6000190192915050565b818103818111156106a9576106a9610601565b92915050565b808201808211156106a9576106a9610601565b600282810b9082900b03627fffff198112627fffff821317156106a9576106a9610601565b60008260020b8260020b028060020b915080821461070757610707610601565b5092915050565b60ff82811682821603908111156106a9576106a9610601565b600281810b9083900b01627fffff8113627fffff19821217156106a9576106a9610601565b60ff81811683821601908111156106a9576106a961060156fea26469706673582212209ee4d7a7ac053e6201ad25e14019fe81848cd0a9c3797c00f1fd07b7a2ccab7264736f6c634300081a0033",
					"opcodes": "PUSH2 0x79B PUSH2 0x39 PUSH1 0xB DUP3 DUP3 DUP3 CODECOPY DUP1 MLOAD PUSH1 0x0 BYTE PUSH1 0x73 EQ PUSH1 0x2C JUMPI PUSH4 0x4E487B71 PUSH1 0xE0 SHL PUSH1 0x0 MSTORE PUSH1 0x0 PUSH1 0x4 MSTORE PUSH1 0x24 PUSH1 0x0 REVERT JUMPDEST ADDRESS PUSH1 0x0 MSTORE PUSH1 0x73 DUP2 MSTORE8 DUP3 DUP2 RETURN INVALID PUSH20 0x0 ADDRESS EQ PUSH1 0x80 PUSH1 0x40 MSTORE PUSH1 0x4 CALLDATASIZE LT PUSH2 0x4B JUMPI PUSH1 0x0 CALLDATALOAD PUSH1 0xE0 SHR DUP1 PUSH4 0x120B7FF9 EQ PUSH2 0x50 JUMPI DUP1 PUSH4 0x3E7B7779 EQ PUSH2 0x82 JUMPI DUP1 PUSH4 0x9C4BBA91 EQ PUSH2 0xB1 JUMPI JUMPDEST PUSH1 0x0 DUP1 REVERT JUMPDEST PUSH2 0x63 PUSH2 0x5E CALLDATASIZE PUSH1 0x4 PUSH2 0x539 JUMP JUMPDEST PUSH2 0xD3 JUMP JUMPDEST PUSH1 0x40 DUP1 MLOAD PUSH1 0x2 SWAP4 SWAP1 SWAP4 SIGNEXTEND DUP4 MSTORE SWAP1 ISZERO ISZERO PUSH1 0x20 DUP4 ADD MSTORE ADD JUMPDEST PUSH1 0x40 MLOAD DUP1 SWAP2 SUB SWAP1 RETURN JUMPDEST PUSH2 0x95 PUSH2 0x90 CALLDATASIZE PUSH1 0x4 PUSH2 0x58D JUMP JUMPDEST PUSH2 0x28B JUMP JUMPDEST PUSH1 0x40 DUP1 MLOAD PUSH1 0x1 SWAP4 SWAP1 SWAP4 SIGNEXTEND DUP4 MSTORE PUSH1 0xFF SWAP1 SWAP2 AND PUSH1 0x20 DUP4 ADD MSTORE ADD PUSH2 0x79 JUMP JUMPDEST DUP2 DUP1 ISZERO PUSH2 0xBD JUMPI PUSH1 0x0 DUP1 REVERT JUMPDEST POP PUSH2 0xD1 PUSH2 0xCC CALLDATASIZE PUSH1 0x4 PUSH2 0x5AF JUMP JUMPDEST PUSH2 0x2A8 JUMP JUMPDEST STOP JUMPDEST PUSH1 0x0 DUP1 DUP1 PUSH2 0xE1 DUP6 DUP8 PUSH2 0x617 JUMP JUMPDEST SWAP1 POP PUSH1 0x0 DUP7 PUSH1 0x2 SIGNEXTEND SLT DUP1 ISZERO PUSH2 0x101 JUMPI POP PUSH2 0xFB DUP6 DUP8 PUSH2 0x651 JUMP JUMPDEST PUSH1 0x2 SIGNEXTEND ISZERO ISZERO JUMPDEST ISZERO PUSH2 0x114 JUMPI DUP1 PUSH2 0x110 DUP2 PUSH2 0x673 JUMP JUMPDEST SWAP2 POP POP JUMPDEST DUP4 ISZERO PUSH2 0x1C1 JUMPI PUSH1 0x0 DUP1 PUSH2 0x126 DUP4 PUSH2 0x28B JUMP JUMPDEST SWAP1 SWAP3 POP SWAP1 POP PUSH1 0x0 PUSH1 0x1 PUSH1 0xFF DUP4 AND DUP2 SWAP1 SHL SWAP1 PUSH2 0x141 SWAP1 DUP3 PUSH2 0x696 JUMP JUMPDEST PUSH2 0x14B SWAP2 SWAP1 PUSH2 0x6AF JUMP JUMPDEST PUSH1 0x1 DUP5 SWAP1 SIGNEXTEND PUSH1 0x0 SWAP1 DUP2 MSTORE PUSH1 0x20 DUP13 SWAP1 MSTORE PUSH1 0x40 SWAP1 KECCAK256 SLOAD DUP2 AND DUP1 ISZERO ISZERO SWAP7 POP SWAP1 SWAP2 POP DUP6 PUSH2 0x18B JUMPI DUP9 PUSH2 0x17C PUSH1 0xFF DUP6 AND DUP8 PUSH2 0x6C2 JUMP JUMPDEST PUSH2 0x186 SWAP2 SWAP1 PUSH2 0x6E7 JUMP JUMPDEST PUSH2 0x1B6 JUMP JUMPDEST DUP9 PUSH2 0x195 DUP3 PUSH2 0x2FB JUMP JUMPDEST PUSH2 0x19F SWAP1 DUP6 PUSH2 0x70E JUMP JUMPDEST PUSH2 0x1AC SWAP1 PUSH1 0xFF AND DUP8 PUSH2 0x6C2 JUMP JUMPDEST PUSH2 0x1B6 SWAP2 SWAP1 PUSH2 0x6E7 JUMP JUMPDEST SWAP7 POP POP POP POP POP PUSH2 0x281 JUMP JUMPDEST PUSH1 0x0 DUP1 PUSH2 0x1D2 PUSH2 0x90 DUP5 PUSH1 0x1 PUSH2 0x727 JUMP JUMPDEST SWAP1 SWAP3 POP SWAP1 POP PUSH1 0x0 PUSH2 0x1EA PUSH1 0x1 PUSH1 0xFF DUP5 AND DUP2 SWAP1 SHL PUSH2 0x696 JUMP JUMPDEST PUSH1 0x1 DUP5 SWAP1 SIGNEXTEND PUSH1 0x0 SWAP1 DUP2 MSTORE PUSH1 0x20 DUP13 SWAP1 MSTORE PUSH1 0x40 SWAP1 KECCAK256 SLOAD SWAP1 NOT SWAP1 DUP2 AND DUP1 ISZERO ISZERO SWAP7 POP SWAP1 SWAP2 POP DUP6 PUSH2 0x243 JUMPI DUP9 PUSH2 0x21C DUP5 PUSH1 0xFF PUSH2 0x70E JUMP JUMPDEST PUSH1 0xFF AND PUSH2 0x22A DUP8 PUSH1 0x1 PUSH2 0x727 JUMP JUMPDEST PUSH2 0x234 SWAP2 SWAP1 PUSH2 0x727 JUMP JUMPDEST PUSH2 0x23E SWAP2 SWAP1 PUSH2 0x6E7 JUMP JUMPDEST PUSH2 0x27A JUMP JUMPDEST DUP9 DUP4 PUSH2 0x24E DUP4 PUSH2 0x3F3 JUMP JUMPDEST PUSH2 0x258 SWAP2 SWAP1 PUSH2 0x70E JUMP JUMPDEST PUSH1 0xFF AND PUSH2 0x266 DUP8 PUSH1 0x1 PUSH2 0x727 JUMP JUMPDEST PUSH2 0x270 SWAP2 SWAP1 PUSH2 0x727 JUMP JUMPDEST PUSH2 0x27A SWAP2 SWAP1 PUSH2 0x6E7 JUMP JUMPDEST SWAP7 POP POP POP POP POP JUMPDEST POP SWAP5 POP SWAP5 SWAP3 POP POP POP JUMP JUMPDEST PUSH1 0x2 DUP2 SWAP1 SIGNEXTEND PUSH1 0x8 SAR PUSH1 0x0 PUSH2 0x2A1 PUSH2 0x100 DUP5 PUSH2 0x651 JUMP JUMPDEST SWAP1 POP SWAP2 POP SWAP2 JUMP JUMPDEST PUSH2 0x2B2 DUP2 DUP4 PUSH2 0x651 JUMP JUMPDEST PUSH1 0x2 SIGNEXTEND ISZERO PUSH2 0x2BF JUMPI PUSH1 0x0 DUP1 REVERT JUMPDEST PUSH1 0x0 DUP1 PUSH2 0x2CF PUSH2 0x90 DUP5 DUP7 PUSH2 0x617 JUMP JUMPDEST PUSH1 0x1 SWAP2 DUP3 SIGNEXTEND PUSH1 0x0 SWAP1 DUP2 MSTORE PUSH1 0x20 SWAP8 SWAP1 SWAP8 MSTORE PUSH1 0x40 SWAP1 SWAP7 KECCAK256 DUP1 SLOAD PUSH1 0xFF SWAP1 SWAP8 AND SWAP2 SWAP1 SWAP2 SHL SWAP1 SWAP6 XOR SWAP1 SWAP5 SSTORE POP POP POP POP JUMP JUMPDEST PUSH1 0x0 DUP1 DUP3 GT PUSH2 0x309 JUMPI PUSH1 0x0 DUP1 REVERT JUMPDEST PUSH1 0x1 PUSH1 0x80 SHL DUP3 LT PUSH2 0x327 JUMPI PUSH1 0x80 SWAP2 DUP3 SHR SWAP2 PUSH2 0x324 SWAP1 DUP3 PUSH2 0x74C JUMP JUMPDEST SWAP1 POP JUMPDEST PUSH9 0x10000000000000000 DUP3 LT PUSH2 0x34A JUMPI PUSH1 0x40 SWAP2 DUP3 SHR SWAP2 PUSH2 0x347 SWAP1 DUP3 PUSH2 0x74C JUMP JUMPDEST SWAP1 POP JUMPDEST PUSH5 0x100000000 DUP3 LT PUSH2 0x369 JUMPI PUSH1 0x20 SWAP2 DUP3 SHR SWAP2 PUSH2 0x366 SWAP1 DUP3 PUSH2 0x74C JUMP JUMPDEST SWAP1 POP JUMPDEST PUSH3 0x10000 DUP3 LT PUSH2 0x386 JUMPI PUSH1 0x10 SWAP2 DUP3 SHR SWAP2 PUSH2 0x383 SWAP1 DUP3 PUSH2 0x74C JUMP JUMPDEST SWAP1 POP JUMPDEST PUSH2 0x100 DUP3 LT PUSH2 0x3A2 JUMPI PUSH1 0x8 SWAP2 DUP3 SHR SWAP2 PUSH2 0x39F SWAP1 DUP3 PUSH2 0x74C JUMP JUMPDEST SWAP1 POP JUMPDEST PUSH1 0x10 DUP3 LT PUSH2 0x3BD JUMPI PUSH1 0x4 SWAP2 DUP3 SHR SWAP2 PUSH2 0x3BA SWAP1 DUP3 PUSH2 0x74C JUMP JUMPDEST SWAP1 POP JUMPDEST PUSH1 0x4 DUP3 LT PUSH2 0x3D8 JUMPI PUSH1 0x2 SWAP2 DUP3 SHR SWAP2 PUSH2 0x3D5 SWAP1 DUP3 PUSH2 0x74C JUMP JUMPDEST SWAP1 POP JUMPDEST PUSH1 0x2 DUP3 LT PUSH2 0x3EE JUMPI PUSH2 0x3EB PUSH1 0x1 DUP3 PUSH2 0x74C JUMP JUMPDEST SWAP1 POP JUMPDEST SWAP2 SWAP1 POP JUMP JUMPDEST PUSH1 0x0 DUP1 DUP3 GT PUSH2 0x401 JUMPI PUSH1 0x0 DUP1 REVERT JUMPDEST POP PUSH1 0xFF PUSH16 0xFFFFFFFFFFFFFFFFFFFFFFFFFFFFFFFF DUP3 AND ISZERO PUSH2 0x42E JUMPI PUSH2 0x427 PUSH1 0x80 DUP3 PUSH2 0x70E JUMP JUMPDEST SWAP1 POP PUSH2 0x436 JUMP JUMPDEST PUSH1 0x80 DUP3 SWAP1 SHR SWAP2 POP JUMPDEST PUSH8 0xFFFFFFFFFFFFFFFF DUP3 AND ISZERO PUSH2 0x458 JUMPI PUSH2 0x451 PUSH1 0x40 DUP3 PUSH2 0x70E JUMP JUMPDEST SWAP1 POP PUSH2 0x460 JUMP JUMPDEST PUSH1 0x40 DUP3 SWAP1 SHR SWAP2 POP JUMPDEST PUSH4 0xFFFFFFFF DUP3 AND ISZERO PUSH2 0x47E JUMPI PUSH2 0x477 PUSH1 0x20 DUP3 PUSH2 0x70E JUMP JUMPDEST SWAP1 POP PUSH2 0x486 JUMP JUMPDEST PUSH1 0x20 DUP3 SWAP1 SHR SWAP2 POP JUMPDEST PUSH2 0xFFFF DUP3 AND ISZERO PUSH2 0x4A2 JUMPI PUSH2 0x49B PUSH1 0x10 DUP3 PUSH2 0x70E JUMP JUMPDEST SWAP1 POP PUSH2 0x4AA JUMP JUMPDEST PUSH1 0x10 DUP3 SWAP1 SHR SWAP2 POP JUMPDEST PUSH1 0xFF DUP3 AND ISZERO PUSH2 0x4C5 JUMPI PUSH2 0x4BE PUSH1 0x8 DUP3 PUSH2 0x70E JUMP JUMPDEST SWAP1 POP PUSH2 0x4CD JUMP JUMPDEST PUSH1 0x8 DUP3 SWAP1 SHR SWAP2 POP JUMPDEST PUSH1 0xF DUP3 AND ISZERO PUSH2 0x4E8 JUMPI PUSH2 0x4E1 PUSH1 0x4 DUP3 PUSH2 0x70E JUMP JUMPDEST SWAP1 POP PUSH2 0x4F0 JUMP JUMPDEST PUSH1 0x4 DUP3 SWAP1 SHR SWAP2 POP JUMPDEST PUSH1 0x3 DUP3 AND ISZERO PUSH2 0x50B JUMPI PUSH2 0x504 PUSH1 0x2 DUP3 PUSH2 0x70E JUMP JUMPDEST SWAP1 POP PUSH2 0x513 JUMP JUMPDEST PUSH1 0x2 DUP3 SWAP1 SHR SWAP2 POP JUMPDEST PUSH1 0x1 DUP3 AND ISZERO PUSH2 0x3EE JUMPI PUSH2 0x3EB PUSH1 0x1 DUP3 PUSH2 0x70E JUMP JUMPDEST DUP1 CALLDATALOAD PUSH1 0x2 DUP2 SWAP1 SIGNEXTEND DUP2 EQ PUSH2 0x3EE JUMPI PUSH1 0x0 DUP1 REVERT JUMPDEST PUSH1 0x0 DUP1 PUSH1 0x0 DUP1 PUSH1 0x80 DUP6 DUP8 SUB SLT ISZERO PUSH2 0x54F JUMPI PUSH1 0x0 DUP1 REVERT JUMPDEST DUP5 CALLDATALOAD SWAP4 POP PUSH2 0x55F PUSH1 0x20 DUP7 ADD PUSH2 0x527 JUMP JUMPDEST SWAP3 POP PUSH2 0x56D PUSH1 0x40 DUP7 ADD PUSH2 0x527 JUMP JUMPDEST SWAP2 POP PUSH1 0x60 DUP6 ADD CALLDATALOAD DUP1 ISZERO ISZERO DUP2 EQ PUSH2 0x582 JUMPI PUSH1 0x0 DUP1 REVERT JUMPDEST SWAP4 SWAP7 SWAP3 SWAP6 POP SWAP1 SWAP4 POP POP JUMP JUMPDEST PUSH1 0x0 PUSH1 0x20 DUP3 DUP5 SUB SLT ISZERO PUSH2 0x59F JUMPI PUSH1 0x0 DUP1 REVERT JUMPDEST PUSH2 0x5A8 DUP3 PUSH2 0x527 JUMP JUMPDEST SWAP4 SWAP3 POP POP POP JUMP JUMPDEST PUSH1 0x0 DUP1 PUSH1 0x0 PUSH1 0x60 DUP5 DUP7 SUB SLT ISZERO PUSH2 0x5C4 JUMPI PUSH1 0x0 DUP1 REVERT JUMPDEST DUP4 CALLDATALOAD SWAP3 POP PUSH2 0x5D4 PUSH1 0x20 DUP6 ADD PUSH2 0x527 JUMP JUMPDEST SWAP2 POP PUSH2 0x5E2 PUSH1 0x40 DUP6 ADD PUSH2 0x527 JUMP JUMPDEST SWAP1 POP SWAP3 POP SWAP3 POP SWAP3 JUMP JUMPDEST PUSH4 0x4E487B71 PUSH1 0xE0 SHL PUSH1 0x0 MSTORE PUSH1 0x12 PUSH1 0x4 MSTORE PUSH1 0x24 PUSH1 0x0 REVERT JUMPDEST PUSH4 0x4E487B71 PUSH1 0xE0 SHL PUSH1 0x0 MSTORE PUSH1 0x11 PUSH1 0x4 MSTORE PUSH1 0x24 PUSH1 0x0 REVERT JUMPDEST PUSH1 0x0 DUP2 PUSH1 0x2 SIGNEXTEND DUP4 PUSH1 0x2 SIGNEXTEND DUP1 PUSH2 0x62E JUMPI PUSH2 0x62E PUSH2 0x5EB JUMP JUMPDEST PUSH3 0x7FFFFF NOT DUP3 EQ PUSH1 0x0 NOT DUP3 EQ AND ISZERO PUSH2 0x648 JUMPI PUSH2 0x648 PUSH2 0x601 JUMP JUMPDEST SWAP1 SDIV SWAP4 SWAP3 POP POP POP JUMP JUMPDEST PUSH1 0x0 DUP3 PUSH1 0x2 SIGNEXTEND DUP1 PUSH2 0x664 JUMPI PUSH2 0x664 PUSH2 0x5EB JUMP JUMPDEST DUP1 DUP4 PUSH1 0x2 SIGNEXTEND SMOD SWAP2 POP POP SWAP3 SWAP2 POP POP JUMP JUMPDEST PUSH1 0x0 DUP2 PUSH1 0x2 SIGNEXTEND PUSH3 0x7FFFFF NOT DUP2 SUB PUSH2 0x68C JUMPI PUSH2 0x68C PUSH2 0x601 JUMP JUMPDEST PUSH1 0x0 NOT ADD SWAP3 SWAP2 POP POP JUMP JUMPDEST DUP2 DUP2 SUB DUP2 DUP2 GT ISZERO PUSH2 0x6A9 JUMPI PUSH2 0x6A9 PUSH2 0x601 JUMP JUMPDEST SWAP3 SWAP2 POP POP JUMP JUMPDEST DUP1 DUP3 ADD DUP1 DUP3 GT ISZERO PUSH2 0x6A9 JUMPI PUSH2 0x6A9 PUSH2 0x601 JUMP JUMPDEST PUSH1 0x2 DUP3 DUP2 SIGNEXTEND SWAP1 DUP3 SWAP1 SIGNEXTEND SUB PUSH3 0x7FFFFF NOT DUP2 SLT PUSH3 0x7FFFFF DUP3 SGT OR ISZERO PUSH2 0x6A9 JUMPI PUSH2 0x6A9 PUSH2 0x601 JUMP JUMPDEST PUSH1 0x0 DUP3 PUSH1 0x2 SIGNEXTEND DUP3 PUSH1 0x2 SIGNEXTEND MUL DUP1 PUSH1 0x2 SIGNEXTEND SWAP2 POP DUP1 DUP3 EQ PUSH2 0x707 JUMPI PUSH2 0x707 PUSH2 0x601 JUMP JUMPDEST POP SWAP3 SWAP2 POP POP JUMP JUMPDEST PUSH1 0xFF DUP3 DUP2 AND DUP3 DUP3 AND SUB SWAP1 DUP2 GT ISZERO PUSH2 0x6A9 JUMPI PUSH2 0x6A9 PUSH2 0x601 JUMP JUMPDEST PUSH1 0x2 DUP2 DUP2 SIGNEXTEND SWAP1 DUP4 SWAP1 SIGNEXTEND ADD PUSH3 0x7FFFFF DUP2 SGT PUSH3 0x7FFFFF NOT DUP3 SLT OR ISZERO PUSH2 0x6A9 JUMPI PUSH2 0x6A9 PUSH2 0x601 JUMP JUMPDEST PUSH1 0xFF DUP2 DUP2 AND DUP4 DUP3 AND ADD SWAP1 DUP2 GT ISZERO PUSH2 0x6A9 JUMPI PUSH2 0x6A9 PUSH2 0x601 JUMP INVALID LOG2 PUSH5 0x6970667358 0x22 SLT KECCAK256 SWAP15 0xE4 0xD7 0xA7 0xAC SDIV RETURNDATACOPY PUSH3 0x1AD25 0xE1 BLOCKHASH NOT INVALID DUP2 DUP5 DUP13 0xD0 0xA9 0xC3 PUSH26 0x7C00F1FD07B7A2CCAB7264736F6C634300081A00330000000000 "
				},
				"gasEstimates": {
					"creation": {
						"codeDepositCost": "389400",
						"executionCost": "458",
						"totalCost": "389858"
					},
					"external": {
						"flipTick(mapping(int16 => uint256) storage,int24,int24)": "infinite",
						"nextInitializedTickWithinOneWord(mapping(int16 => uint256) storage,int24,int24,bool)": "infinite",
						"position(int24)": "510"
					}
				},
				"methodIdentifiers": {
					"flipTick(mapping(int16 => uint256) storage,int24,int24)": "9c4bba91",
					"nextInitializedTickWithinOneWord(mapping(int16 => uint256) storage,int24,int24,bool)": "120b7ff9",
					"position(int24)": "3e7b7779"
				}
			},
			"storageLayout": {
				"storage": [],
				"types": null
			},
			"userdoc": {
				"kind": "user",
				"methods": {
					"flipTick(mapping(int16 => uint256) storage,int24,int24)": {
						"notice": "Flips the initialized state for a given tick from false to true, or vice versa"
					},
					"nextInitializedTickWithinOneWord(mapping(int16 => uint256) storage,int24,int24,bool)": {
						"notice": "Returns the next initialized tick contained in the same word (or adjacent word) as the tick that is either to the left (less than or equal to) or right (greater than) of the given tick"
					},
					"position(int24)": {
						"notice": "Computes the position in the mapping where the initialized bit for a tick lives"
					}
				},
				"notice": "Stores a packed mapping of tick index to its initialized state",
				"version": 1
			}
		}
	}
}