{
	"data": {
		"bytecode": {
			"linkReferences": {},
			"object": "61079b610039600b82828239805160001a607314602c57634e487b7160e01b600052600060045260246000fd5b30600052607381538281f3fe730000000000000000000000000000000000000000301460806040526004361061004b5760003560e01c8063120b7ff9146100505780633e7b7779146100825780639c4bba91146100b1575b600080fd5b61006361005e366004610539565b6100d3565b6040805160029390930b83529015156020830152015b60405180910390f35b61009561009036600461058d565b61028b565b6040805160019390930b835260ff909116602083015201610079565b8180156100bd57600080fd5b506100d16100cc3660046105af565b6102a8565b005b600080806100e18587610617565b905060008660020b12801561010157506100fb8587610651565b60020b15155b15610114578061011081610673565b9150505b83156101c1576000806101268361028b565b90925090506000600160ff831681901b906101419082610696565b61014b91906106af565b600184900b600090815260208c90526040902054811680151596509091508561018b578861017c60ff8516876106c2565b61018691906106e7565b6101b6565b88610195826102fb565b61019f908561070e565b6101ac9060ff16876106c2565b6101b691906106e7565b965050505050610281565b6000806101d2610090846001610727565b909250905060006101ea600160ff841681901b610696565b600184900b600090815260208c905260409020549019908116801515965090915085610243578861021c8460ff61070e565b60ff1661022a876001610727565b6102349190610727565b61023e91906106e7565b61027a565b888361024e836103f3565b610258919061070e565b60ff16610266876001610727565b6102709190610727565b61027a91906106e7565b9650505050505b5094509492505050565b600281900b60081d60006102a161010084610651565b9050915091565b6102b28183610651565b60020b156102bf57600080fd5b6000806102cf6100908486610617565b600191820b60009081526020979097526040909620805460ff9097169190911b90951890945550505050565b600080821161030957600080fd5b600160801b821061032757608091821c91610324908261074c565b90505b68010000000000000000821061034a57604091821c91610347908261074c565b90505b640100000000821061036957602091821c91610366908261074c565b90505b62010000821061038657601091821c91610383908261074c565b90505b61010082106103a257600891821c9161039f908261074c565b90505b601082106103bd57600491821c916103ba908261074c565b90505b600482106103d857600291821c916103d5908261074c565b90505b600282106103ee576103eb60018261074c565b90505b919050565b600080821161040157600080fd5b5060ff6fffffffffffffffffffffffffffffffff82161561042e5761042760808261070e565b9050610436565b608082901c91505b67ffffffffffffffff8216156104585761045160408261070e565b9050610460565b604082901c91505b63ffffffff82161561047e5761047760208261070e565b9050610486565b602082901c91505b61ffff8216156104a25761049b60108261070e565b90506104aa565b601082901c91505b60ff8216156104c5576104be60088261070e565b90506104cd565b600882901c91505b600f8216156104e8576104e160048261070e565b90506104f0565b600482901c91505b600382161561050b5761050460028261070e565b9050610513565b600282901c91505b60018216156103ee576103eb60018261070e565b8035600281900b81146103ee57600080fd5b6000806000806080858703121561054f57600080fd5b8435935061055f60208601610527565b925061056d60408601610527565b91506060850135801515811461058257600080fd5b939692955090935050565b60006020828403121561059f57600080fd5b6105a882610527565b9392505050565b6000806000606084860312156105c457600080fd5b833592506105d460208501610527565b91506105e260408501610527565b90509250925092565b634e487b7160e01b600052601260045260246000fd5b634e487b7160e01b600052601160045260246000fd5b60008160020b8360020b8061062e5761062e6105eb565b627fffff1982146000198214161561064857610648610601565b90059392505050565b60008260020b80610664576106646105eb565b808360020b0791505092915050565b60008160020b627fffff19810361068c5761068c610601565b6000190192915050565b818103818111156106a9576106a9610601565b92915050565b808201808211156106a9576106a9610601565b600282810b9082900b03627fffff198112627fffff821317156106a9576106a9610601565b60008260020b8260020b028060020b915080821461070757610707610601565b5092915050565b60ff82811682821603908111156106a9576106a9610601565b600281810b9083900b01627fffff8113627fffff19821217156106a9576106a9610601565b60ff81811683821601908111156106a9576106a961060156fea26469706673582212209ee4d7a7ac053e6201ad25e14019fe81848cd0a9c3797c00f1fd07b7a2ccab7264736f6c634300081a0033",
			"opcodes": "PUSH2 0x79B PUSH2 0x39 PUSH1 0xB DUP3 DUP3 DUP3 CODECOPY DUP1 MLOAD PUSH1 0x0 BYTE PUSH1 0x73 EQ PUSH1 0x2C JUMPI PUSH4 0x4E487B71 PUSH1 0xE0 SHL PUSH1 0x0 MSTORE PUSH1 0x0 PUSH1 0x4 MSTORE PUSH1 0x24 PUSH1 0x0 REVERT JUMPDEST ADDRESS PUSH1 0x0 MSTORE PUSH1 0x73 DUP2 MSTORE8 DUP3 DUP2 RETURN INVALID PUSH20 0x0 ADDRESS EQ PUSH1 0x80 PUSH1 0x40 MSTORE PUSH1 0x4 CALLDATASIZE LT PUSH2 0x4B JUMPI PUSH1 0x0 CALLDATALOAD PUSH1 0xE0 SHR DUP1 PUSH4 0x120B7FF9 EQ PUSH2 0x50 JUMPI DUP1 PUSH4 0x3E7B7779 EQ PUSH2 0x82 JUMPI DUP1 PUSH4 0x9C4BBA91 EQ PUSH2 0xB1 JUMPI JUMPDEST PUSH1 0x0 DUP1 REVERT JUMPDEST PUSH2 0x63 PUSH2 0x5E CALLDATASIZE PUSH1 0x4 PUSH2 0x539 JUMP JUMPDEST PUSH2 0xD3 JUMP JUMPDEST PUSH1 0x40 DUP1 MLOAD PUSH1 0x2 SWAP4 SWAP1 SWAP4 SIGNEXTEND DUP4 MSTORE SWAP1 ISZERO ISZERO PUSH1 0x20 DUP4 ADD MSTORE ADD JUMPDEST PUSH1 0x40 MLOAD DUP1 SWAP2 SUB SWAP1 RETURN JUMPDEST PUSH2 0x95 PUSH2 0x90 CALLDATASIZE PUSH1 0x4 PUSH2 0x58D JUMP JUMPDEST PUSH2 0x28B JUMP JUMPDEST PUSH1 0x40 DUP1 MLOAD PUSH1 0x1 SWAP4 SWAP1 SWAP4 SIGNEXTEND DUP4 MSTORE PUSH1 0xFF SWAP1 SWAP2 AND PUSH1 0x20 DUP4 ADD MSTORE ADD PUSH2 0x79 JUMP JUMPDEST DUP2 DUP1 ISZERO PUSH2 0xBD JUMPI PUSH1 0x0 DUP1 REVERT JUMPDEST POP PUSH2 0xD1 PUSH2 0xCC CALLDATASIZE PUSH1 0x4 PUSH2 0x5AF JUMP JUMPDEST PUSH2 0x2A8 JUMP JUMPDEST STOP JUMPDEST PUSH1 0x0 DUP1 DUP1 PUSH2 0xE1 DUP6 DUP8 PUSH2 0x617 JUMP JUMPDEST SWAP1 POP PUSH1 0x0 DUP7 PUSH1 0x2 SIGNEXTEND SLT DUP1 ISZERO PUSH2 0x101 JUMPI POP PUSH2 0xFB DUP6 DUP8 PUSH2 0x651 JUMP JUMPDEST PUSH1 0x2 SIGNEXTEND ISZERO ISZERO JUMPDEST ISZERO PUSH2 0x114 JUMPI DUP1 PUSH2 0x110 DUP2 PUSH2 0x673 JUMP JUMPDEST SWAP2 POP POP JUMPDEST DUP4 ISZERO PUSH2 0x1C1 JUMPI PUSH1 0x0 DUP1 PUSH2 0x126 DUP4 PUSH2 0x28B JUMP JUMPDEST SWAP1 SWAP3 POP SWAP1 POP PUSH1 0x0 PUSH1 0x1 PUSH1 0xFF DUP4 AND DUP2 SWAP1 SHL SWAP1 PUSH2 0x141 SWAP1 DUP3 PUSH2 0x696 JUMP JUMPDEST PUSH2 0x14B SWAP2 SWAP1 PUSH2 0x6AF JUMP JUMPDEST PUSH1 0x1 DUP5 SWAP1 SIGNEXTEND PUSH1 0x0 SWAP1 DUP2 MSTORE PUSH1 0x20 DUP13 SWAP1 MSTORE PUSH1 0x40 SWAP1 KECCAK256 SLOAD DUP2 AND DUP1 ISZERO ISZERO SWAP7 POP SWAP1 SWAP2 POP DUP6 PUSH2 0x18B JUMPI DUP9 PUSH2 0x17C PUSH1 0xFF DUP6 AND DUP8 PUSH2 0x6C2 JUMP JUMPDEST PUSH2 0x186 SWAP2 SWAP1 PUSH2 0x6E7 JUMP JUMPDEST PUSH2 0x1B6 JUMP JUMPDEST DUP9 PUSH2 0x195 DUP3 PUSH2 0x2FB JUMP JUMPDEST PUSH2 0x19F SWAP1 DUP6 PUSH2 0x70E JUMP JUMPDEST PUSH2 0x1AC SWAP1 PUSH1 0xFF AND DUP8 PUSH2 0x6C2 JUMP JUMPDEST PUSH2 0x1B6 SWAP2 SWAP1 PUSH2 0x6E7 JUMP JUMPDEST SWAP7 POP POP POP POP POP PUSH2 0x281 JUMP JUMPDEST PUSH1 0x0 DUP1 PUSH2 0x1D2 PUSH2 0x90 DUP5 PUSH1 0x1 PUSH2 0x727 JUMP JUMPDEST SWAP1 SWAP3 POP SWAP1 POP PUSH1 0x0 PUSH2 0x1EA PUSH1 0x1 PUSH1 0xFF DUP5 AND DUP2 SWAP1 SHL PUSH2 0x696 JUMP JUMPDEST PUSH1 0x1 DUP5 SWAP1 SIGNEXTEND PUSH1 0x0 SWAP1 DUP2 MSTORE PUSH1 0x20 DUP13 SWAP1 MSTORE PUSH1 0x40 SWAP1 KECCAK256 SLOAD SWAP1 NOT SWAP1 DUP2 AND DUP1 ISZERO ISZERO SWAP7 POP SWAP1 SWAP2 POP DUP6 PUSH2 0x243 JUMPI DUP9 PUSH2 0x21C DUP5 PUSH1 0xFF PUSH2 0x70E JUMP JUMPDEST PUSH1 0xFF AND PUSH2 0x22A DUP8 PUSH1 0x1 PUSH2 0x727 JUMP JUMPDEST PUSH2 0x234 SWAP2 SWAP1 PUSH2 0x727 JUMP JUMPDEST PUSH2 0x23E SWAP2 SWAP1 PUSH2 0x6E7 JUMP JUMPDEST PUSH2 0x27A JUMP JUMPDEST DUP9 DUP4 PUSH2 0x24E DUP4 PUSH2 0x3F3 JUMP JUMPDEST PUSH2 0x258 SWAP2 SWAP1 PUSH2 0x70E JUMP JUMPDEST PUSH1 0xFF AND PUSH2 0x266 DUP8 PUSH1 0x1 PUSH2 0x727 JUMP JUMPDEST PUSH2 0x270 SWAP2 SWAP1 PUSH2 0x727 JUMP JUMPDEST PUSH2 0x27A SWAP2 SWAP1 PUSH2 0x6E7 JUMP JUMPDEST SWAP7 POP POP POP POP POP JUMPDEST POP SWAP5 POP SWAP5 SWAP3 POP POP POP JUMP JUMPDEST PUSH1 0x2 DUP2 SWAP1 SIGNEXTEND PUSH1 0x8 SAR PUSH1 0x0 PUSH2 0x2A1 PUSH2 0x100 DUP5 PUSH2 0x651 JUMP JUMPDEST SWAP1 POP SWAP2 POP SWAP2 JUMP JUMPDEST PUSH2 0x2B2 DUP2 DUP4 PUSH2 0x651 JUMP JUMPDEST PUSH1 0x2 SIGNEXTEND ISZERO PUSH2 0x2BF JUMPI PUSH1 0x0 DUP1 REVERT JUMPDEST PUSH1 0x0 DUP1 PUSH2 0x2CF PUSH2 0x90 DUP5 DUP7 PUSH2 0x617 JUMP JUMPDEST PUSH1 0x1 SWAP2 DUP3 SIGNEXTEND PUSH1 0x0 SWAP1 DUP2 MSTORE PUSH1 0x20 SWAP8 SWAP1 SWAP8 MSTORE PUSH1 0x40 SWAP1 SWAP7 KECCAK256 DUP1 SLOAD PUSH1 0xFF SWAP1 SWAP8 AND SWAP2 SWAP1 SWAP2 SHL SWAP1 SWAP6 XOR SWAP1 SWAP5 SSTORE POP POP POP POP JUMP JUMPDEST PUSH1 0x0 DUP1 DUP3 GT PUSH2 0x309 JUMPI PUSH1 0x0 DUP1 REVERT JUMPDEST PUSH1 0x1 PUSH1 0x80 SHL DUP3 LT PUSH2 0x327 JUMPI PUSH1 0x80 SWAP2 DUP3 SHR SWAP2 PUSH2 0x324 SWAP1 DUP3 PUSH2 0x74C JUMP JUMPDEST SWAP1 POP JUMPDEST PUSH9 0x10000000000000000 DUP3 LT PUSH2 0x34A JUMPI PUSH1 0x40 SWAP2 DUP3 SHR SWAP2 PUSH2 0x347 SWAP1 DUP3 PUSH2 0x74C JUMP JUMPDEST SWAP1 POP JUMPDEST PUSH5 0x100000000 DUP3 LT PUSH2 0x369 JUMPI PUSH1 0x20 SWAP2 DUP3 SHR SWAP2 PUSH2 0x366 SWAP1 DUP3 PUSH2 0x74C JUMP JUMPDEST SWAP1 POP JUMPDEST PUSH3 0x10000 DUP3 LT PUSH2 0x386 JUMPI PUSH1 0x10 SWAP2 DUP3 SHR SWAP2 PUSH2 0x383 SWAP1 DUP3 PUSH2 0x74C JUMP JUMPDEST SWAP1 POP JUMPDEST PUSH2 0x100 DUP3 LT PUSH2 0x3A2 JUMPI PUSH1 0x8 SWAP2 DUP3 SHR SWAP2 PUSH2 0x39F SWAP1 DUP3 PUSH2 0x74C JUMP JUMPDEST SWAP1 POP JUMPDEST PUSH1 0x10 DUP3 LT PUSH2 0x3BD JUMPI PUSH1 0x4 SWAP2 DUP3 SHR SWAP2 PUSH2 0x3BA SWAP1 DUP3 PUSH2 0x74C JUMP JUMPDEST SWAP1 POP JUMPDEST PUSH1 0x4 DUP3 LT PUSH2 0x3D8 JUMPI PUSH1 0x2 SWAP2 DUP3 SHR SWAP2 PUSH2 0x3D5 SWAP1 DUP3 PUSH2 0x74C JUMP JUMPDEST SWAP1 POP JUMPDEST PUSH1 0x2 DUP3 LT PUSH2 0x3EE JUMPI PUSH2 0x3EB PUSH1 0x1 DUP3 PUSH2 0x74C JUMP JUMPDEST SWAP1 POP JUMPDEST SWAP2 SWAP1 POP JUMP JUMPDEST PUSH1 0x0 DUP1 DUP3 GT PUSH2 0x401 JUMPI PUSH1 0x0 DUP1 REVERT JUMPDEST POP PUSH1 0xFF PUSH16 0xFFFFFFFFFFFFFFFFFFFFFFFFFFFFFFFF DUP3 AND ISZERO PUSH2 0x42E JUMPI PUSH2 0x427 PUSH1 0x80 DUP3 PUSH2 0x70E JUMP JUMPDEST SWAP1 POP PUSH2 0x436 JUMP JUMPDEST PUSH1 0x80 DUP3 SWAP1 SHR SWAP2 POP JUMPDEST PUSH8 0xFFFFFFFFFFFFFFFF DUP3 AND ISZERO PUSH2 0x458 JUMPI PUSH2 0x451 PUSH1 0x40 DUP3 PUSH2 0x70E JUMP JUMPDEST SWAP1 POP PUSH2 0x460 JUMP JUMPDEST PUSH1 0x40 DUP3 SWAP1 SHR SWAP2 POP JUMPDEST PUSH4 0xFFFFFFFF DUP3 AND ISZERO PUSH2 0x47E JUMPI PUSH2 0x477 PUSH1 0x20 DUP3 PUSH2 0x70E JUMP JUMPDEST SWAP1 POP PUSH2 0x486 JUMP JUMPDEST PUSH1 0x20 DUP3 SWAP1 SHR SWAP2 POP JUMPDEST PUSH2 0xFFFF DUP3 AND ISZERO PUSH2 0x4A2 JUMPI PUSH2 0x49B PUSH1 0x10 DUP3 PUSH2 0x70E JUMP JUMPDEST SWAP1 POP PUSH2 0x4AA JUMP JUMPDEST PUSH1 0x10 DUP3 SWAP1 SHR SWAP2 POP JUMPDEST PUSH1 0xFF DUP3 AND ISZERO PUSH2 0x4C5 JUMPI PUSH2 0x4BE PUSH1 0x8 DUP3 PUSH2 0x70E JUMP JUMPDEST SWAP1 POP PUSH2 0x4CD JUMP JUMPDEST PUSH1 0x8 DUP3 SWAP1 SHR SWAP2 POP JUMPDEST PUSH1 0xF DUP3 AND ISZERO PUSH2 0x4E8 JUMPI PUSH2 0x4E1 PUSH1 0x4 DUP3 PUSH2 0x70E JUMP JUMPDEST SWAP1 POP PUSH2 0x4F0 JUMP JUMPDEST PUSH1 0x4 DUP3 SWAP1 SHR SWAP2 POP JUMPDEST PUSH1 0x3 DUP3 AND ISZERO PUSH2 0x50B JUMPI PUSH2 0x504 PUSH1 0x2 DUP3 PUSH2 0x70E JUMP JUMPDEST SWAP1 POP PUSH2 0x513 JUMP JUMPDEST PUSH1 0x2 DUP3 SWAP1 SHR SWAP2 POP JUMPDEST PUSH1 0x1 DUP3 AND ISZERO PUSH2 0x3EE JUMPI PUSH2 0x3EB PUSH1 0x1 DUP3 PUSH2 0x70E JUMP JUMPDEST DUP1 CALLDATALOAD PUSH1 0x2 DUP2 SWAP1 SIGNEXTEND DUP2 EQ PUSH2 0x3EE JUMPI PUSH1 0x0 DUP1 REVERT JUMPDEST PUSH1 0x0 DUP1 PUSH1 0x0 DUP1 PUSH1 0x80 DUP6 DUP8 SUB SLT ISZERO PUSH2 0x54F JUMPI PUSH1 0x0 DUP1 REVERT JUMPDEST DUP5 CALLDATALOAD SWAP4 POP PUSH2 0x55F PUSH1 0x20 DUP7 ADD PUSH2 0x527 JUMP JUMPDEST SWAP3 POP PUSH2 0x56D PUSH1 0x40 DUP7 ADD PUSH2 0x527 JUMP JUMPDEST SWAP2 POP PUSH1 0x60 DUP6 ADD CALLDATALOAD DUP1 ISZERO ISZERO DUP2 EQ PUSH2 0x582 JUMPI PUSH1 0x0 DUP1 REVERT JUMPDEST SWAP4 SWAP7 SWAP3 SWAP6 POP SWAP1 SWAP4 POP POP JUMP JUMPDEST PUSH1 0x0 PUSH1 0x20 DUP3 DUP5 SUB SLT ISZERO PUSH2 0x59F JUMPI PUSH1 0x0 DUP1 REVERT JUMPDEST PUSH2 0x5A8 DUP3 PUSH2 0x527 JUMP JUMPDEST SWAP4 SWAP3 POP POP POP JUMP JUMPDEST PUSH1 0x0 DUP1 PUSH1 0x0 PUSH1 0x60 DUP5 DUP7 SUB SLT ISZERO PUSH2 0x5C4 JUMPI PUSH1 0x0 DUP1 REVERT JUMPDEST DUP4 CALLDATALOAD SWAP3 POP PUSH2 0x5D4 PUSH1 0x20 DUP6 ADD PUSH2 0x527 JUMP JUMPDEST SWAP2 POP PUSH2 0x5E2 PUSH1 0x40 DUP6 ADD PUSH2 0x527 JUMP JUMPDEST SWAP1 POP SWAP3 POP SWAP3 POP SWAP3 JUMP JUMPDEST PUSH4 0x4E487B71 PUSH1 0xE0 SHL PUSH1 0x0 MSTORE PUSH1 0x12 PUSH1 0x4 MSTORE PUSH1 0x24 PUSH1 0x0 REVERT JUMPDEST PUSH4 0x4E487B71 PUSH1 0xE0 SHL PUSH1 0x0 MSTORE PUSH1 0x11 PUSH1 0x4 MSTORE PUSH1 0x24 PUSH1 0x0 REVERT JUMPDEST PUSH1 0x0 DUP2 PUSH1 0x2 SIGNEXTEND DUP4 PUSH1 0x2 SIGNEXTEND DUP1 PUSH2 0x62E JUMPI PUSH2 0x62E PUSH2 0x5EB JUMP JUMPDEST PUSH3 0x7FFFFF NOT DUP3 EQ PUSH1 0x0 NOT DUP3 EQ AND ISZERO PUSH2 0x648 JUMPI PUSH2 0x648 PUSH2 0x601 JUMP JUMPDEST SWAP1 SDIV SWAP4 SWAP3 POP POP POP JUMP JUMPDEST PUSH1 0x0 DUP3 PUSH1 0x2 SIGNEXTEND DUP1 PUSH2 0x664 JUMPI PUSH2 0x664 PUSH2 0x5EB JUMP JUMPDEST DUP1 DUP4 PUSH1 0x2 SIGNEXTEND SMOD SWAP2 POP POP SWAP3 SWAP2 POP POP JUMP JUMPDEST PUSH1 0x0 DUP2 PUSH1 0x2 SIGNEXTEND PUSH3 0x7FFFFF NOT DUP2 SUB PUSH2 0x68C JUMPI PUSH2 0x68C PUSH2 0x601 JUMP JUMPDEST PUSH1 0x0 NOT ADD SWAP3 SWAP2 POP POP JUMP JUMPDEST DUP2 DUP2 SUB DUP2 DUP2 GT ISZERO PUSH2 0x6A9 JUMPI PUSH2 0x6A9 PUSH2 0x601 JUMP JUMPDEST SWAP3 SWAP2 POP POP JUMP JUMPDEST DUP1 DUP3 ADD DUP1 DUP3 GT ISZERO PUSH2 0x6A9 JUMPI PUSH2 0x6A9 PUSH2 0x601 JUMP JUMPDEST PUSH1 0x2 DUP3 DUP2 SIGNEXTEND SWAP1 DUP3 SWAP1 SIGNEXTEND SUB PUSH3 0x7FFFFF NOT DUP2 SLT PUSH3 0x7FFFFF DUP3 SGT OR ISZERO PUSH2 0x6A9 JUMPI PUSH2 0x6A9 PUSH2 0x601 JUMP JUMPDEST PUSH1 0x0 DUP3 PUSH1 0x2 SIGNEXTEND DUP3 PUSH1 0x2 SIGNEXTEND MUL DUP1 PUSH1 0x2 SIGNEXTEND SWAP2 POP DUP1 DUP3 EQ PUSH2 0x707 JUMPI PUSH2 0x707 PUSH2 0x601 JUMP JUMPDEST POP SWAP3 SWAP2 POP POP JUMP JUMPDEST PUSH1 0xFF DUP3 DUP2 AND DUP3 DUP3 AND SUB SWAP1 DUP2 GT ISZERO PUSH2 0x6A9 JUMPI PUSH2 0x6A9 PUSH2 0x601 JUMP JUMPDEST PUSH1 0x2 DUP2 DUP2 SIGNEXTEND SWAP1 DUP4 SWAP1 SIGNEXTEND ADD PUSH3 0x7FFFFF DUP2 SGT PUSH3 0x7FFFFF NOT DUP3 SLT OR ISZERO PUSH2 0x6A9 JUMPI PUSH2 0x6A9 PUSH2 0x601 JUMP JUMPDEST PUSH1 0xFF DUP2 DUP2 AND DUP4 DUP3 AND ADD SWAP1 DUP2 GT ISZERO PUSH2 0x6A9 JUMPI PUSH2 0x6A9 PUSH2 0x601 JUMP INVALID LOG2 PUSH5 0x6970667358 0x22 SLT KECCAK256 SWAP15 0xE4 0xD7 0xA7 0xAC SDIV RETURNDATACOPY PUSH3 0x1AD25 0xE1 BLOCKHASH NOT INVALID DUP2 DUP5 DUP13 0xD0 0xA9 0xC3 PUSH26 0x7C00F1FD07B7A2CCAB7264736F6C634300081A00330000000000 "
		},
		"gasEstimates": {
			"creation": {
				"codeDepositCost": "389400",
				"executionCost": "458",
				"totalCost": "389858"
			},
			"external": {
				"flipTick(mapping(int16 => uint256) storage,int24,int24)": "infinite",
				"nextInitializedTickWithinOneWord(mapping(int16 => uint256) storage,int24,int24,bool)": "infinite",
				"position(int24)": "510"
			}
		},
		"methodIdentifiers": {
			"flipTick(mapping(int16 => uint256) storage,int24,int24)": "9c4bba91",
			"nextInitializedTickWithinOneWord(mapping(int16 => uint256) storage,int24,int24,bool)": "120b7ff9",
			"position(int24)": "3e7b7779"
		}
	},
	"abi": [
		{
			"inputs": [
				{
					"internalType": "int24",
					"name": "tick",
					"type": "int24"
				}
			],
			"name": "position",
			"outputs": [
				{
					"internalType": "int16",
					"name": "wordPos",
					"type": "int16"
				},
				{
					"internalType": "uint8",
					"name": "bitPos",
					"type": "uint8"
				}
			],
			"stateMutability": "pure",
			"type": "function"
		}
	]
}